{
  "_format": "hh-sol-artifact-1",
  "contractName": "TraderJoeV2Adapter",
  "sourceName": "contracts/adapters/TraderJoeV2Adapter.sol",
  "abi": [
    {
      "inputs": [
        {
          "internalType": "contract ILBRouter",
          "name": "_router",
          "type": "address"
        },
        {
          "internalType": "address",
          "name": "_factory",
          "type": "address"
        }
      ],
      "stateMutability": "nonpayable",
      "type": "constructor"
    },
    {
      "inputs": [
        {
          "internalType": "address",
          "name": "token",
          "type": "address"
        }
      ],
      "name": "SafeERC20FailedOperation",
      "type": "error"
    },
    {
      "inputs": [],
      "name": "USDC",
      "outputs": [
        {
          "internalType": "address",
          "name": "",
          "type": "address"
        }
      ],
      "stateMutability": "view",
      "type": "function"
    },
    {
      "inputs": [],
      "name": "USDT",
      "outputs": [
        {
          "internalType": "address",
          "name": "",
          "type": "address"
        }
      ],
      "stateMutability": "view",
      "type": "function"
    },
    {
      "inputs": [],
      "name": "WAVAX",
      "outputs": [
        {
          "internalType": "address",
          "name": "",
          "type": "address"
        }
      ],
      "stateMutability": "view",
      "type": "function"
    },
    {
      "inputs": [],
      "name": "dexName",
      "outputs": [
        {
          "internalType": "string",
          "name": "",
          "type": "string"
        }
      ],
      "stateMutability": "pure",
      "type": "function"
    },
    {
      "inputs": [],
      "name": "factory",
      "outputs": [
        {
          "internalType": "address",
          "name": "",
          "type": "address"
        }
      ],
      "stateMutability": "view",
      "type": "function"
    },
    {
      "inputs": [
        {
          "internalType": "address",
          "name": "tokenIn",
          "type": "address"
        },
        {
          "internalType": "address",
          "name": "tokenOut",
          "type": "address"
        },
        {
          "internalType": "uint256",
          "name": "amountIn",
          "type": "uint256"
        }
      ],
      "name": "getAmountOut",
      "outputs": [
        {
          "internalType": "uint256",
          "name": "amountOut",
          "type": "uint256"
        }
      ],
      "stateMutability": "view",
      "type": "function"
    },
    {
      "inputs": [
        {
          "internalType": "address",
          "name": "tokenIn",
          "type": "address"
        },
        {
          "internalType": "address",
          "name": "tokenOut",
          "type": "address"
        }
      ],
      "name": "hasPool",
      "outputs": [
        {
          "internalType": "bool",
          "name": "",
          "type": "bool"
        }
      ],
      "stateMutability": "view",
      "type": "function"
    },
    {
      "inputs": [],
      "name": "router",
      "outputs": [
        {
          "internalType": "contract ILBRouter",
          "name": "",
          "type": "address"
        }
      ],
      "stateMutability": "view",
      "type": "function"
    },
    {
      "inputs": [
        {
          "internalType": "address",
          "name": "tokenIn",
          "type": "address"
        },
        {
          "internalType": "address",
          "name": "tokenOut",
          "type": "address"
        },
        {
          "internalType": "uint256",
          "name": "amountIn",
          "type": "uint256"
        },
        {
          "internalType": "uint256",
          "name": "minAmountOut",
          "type": "uint256"
        },
        {
          "internalType": "address",
          "name": "recipient",
          "type": "address"
        }
      ],
      "name": "swap",
      "outputs": [
        {
          "internalType": "uint256",
          "name": "amountOut",
          "type": "uint256"
        }
      ],
      "stateMutability": "nonpayable",
      "type": "function"
    }
  ],
  "bytecode": "0x60c0346100bc57601f61167038819003918201601f19168301916001600160401b038311848410176100c15780849260409485528339810103126100bc5780516001600160a01b039182821682036100bc576020015191821682036100bc5760805260a05260405161159890816100d882396080518181816098015281816101ba01528181610229015281816104170152818161092a01528181610a6d01528181610f9501528181611103015261125d015260a05181610b670152f35b600080fd5b634e487b7160e01b600052604160045260246000fdfe608080604052600436101561001357600080fd5b60003560e01c90816312009f2714610c2b575080634aa0665214610bf457806373b295c214610bc557806389a3027114610b96578063c45a015514610b51578063c54e44eb14610b22578063d5bcb9b51461010d578063d6432fab146100cc5763f887ea401461008257600080fd5b346100c75760003660031901126100c7576040517f00000000000000000000000000000000000000000000000000000000000000006001600160a01b03168152602090f35b600080fd5b346100c75760403660031901126100c75760206100e7610cc1565b6001600160a01b0390610102906100fc610cd7565b906111f5565b161515604051908152f35b346100c75760a03660031901126100c757610126610cc1565b61012e610cd7565b906084356001600160a01b03811681036100c757604051916323b872dd60e01b602084015233602484015230604484015260443560648401526064835260a0830167ffffffffffffffff93808210858311176105c35760409190915261019d906001600160a01b038316610e50565b604051636eb1769f60e11b81523060048201526001600160a01b037f0000000000000000000000000000000000000000000000000000000000000000811660248301526020908290604490829086165afa9081156104d157600091610af0575b5060443581018091116105ad576040516020600081830163095ea7b360e01b9485825260018060a01b037f000000000000000000000000000000000000000000000000000000000000000016602486015260448501526044845261026084610d09565b835190826001600160a01b0388165af16000513d82610acb575b505015610a54575b506001600160a01b03905061029785836111f5565b169384156105d95750604051926040840190848210908211176105c3576040526001835260203681850137604051926102cf84610d25565b60028452604036602086013761012c42018042116105ad57604051936102f485610ced565b60443585526064356020860152604085019283526060850195865260018060a01b0316608085015260a08401526040516305fc47b360e21b8152602081600481895afa9081156104d1576103579161ffff9160009161057e575b50169151610eac565b5282516001600160a01b0382169061036e90610eac565b526040516305e8746d60e01b8082529190602081600481895afa9081156104d15760009161055f575b506001600160a01b0391821691160361050a5750602060049360405194858092633684184360e21b82525afa9182156104d1576103f6602093610411956000916104dd575b506001600160a01b03165b60018060a01b03169151610ecf565b52604051809381926349de84c160e11b8352600483016114a6565b038160007f00000000000000000000000000000000000000000000000000000000000000006001600160a01b03165af19081156104d15760009161049f575b505b606435811061046657602090604051908152f35b60405162461bcd60e51b815260206004820152601160248201527014db1a5c1c1859d948195e18d959591959607a1b6044820152606490fd5b90506020813d6020116104c9575b816104ba60209383610d41565b810103126100c7575181610450565b3d91506104ad565b6040513d6000823e3d90fd5b6104fd9150853d8711610503575b6104f58183610d41565b810190611487565b866103dc565b503d6104eb565b60209060046040518096819382525afa9182156104d1576103f660209361041195600091610542575b506001600160a01b03166103e7565b6105599150853d8711610503576104f58183610d41565b86610533565b610578915060203d602011610503576104f58183610d41565b86610397565b6105a0915060203d6020116105a6575b6105988183610d41565b81019061146d565b8861034e565b503d61058e565b634e487b7160e01b600052601160045260246000fd5b634e487b7160e01b600052604160045260246000fd5b60405192945092506105ea82610d09565b60038252606036602084013773b31f66aa3c1e785363f0875a1b74e27b85fd66c761061483610eac565b5273b97ef9ef8734c71904d8002f8b6bc66dd9c48a6e61063383610ecf565b52739702230a8ea53601f5cd2dc00fdbc13d4df4a8c761065283610edf565b5260009060009360005b845181101561079b576001600160a01b036106778287610f0f565b51166001600160a01b038416148015610776575b61076d576106ac6001600160a01b036106a48388610f0f565b5116846111f5565b836106ca846001600160a01b036106c3868b610f0f565b51166111f5565b916001600160a01b03811615158061075b575b6106f3575b5050506106ee90610f23565b61065c565b906106fd91611351565b908161070b575b84906106e2565b61072a91906001600160a01b03610722858a610f0f565b511690611428565b848111610738575b80610704565b90955092506106ee6001600160a01b036107528787610f0f565b51169590610732565b506001600160a01b03831615156106dd565b6106ee90610f23565b506001600160a01b036107898287610f0f565b51166001600160a01b0383161461068b565b509093925090506001600160a01b03821615610a1e576107bb82846111f5565b916107c682826111f5565b6001600160a01b038416151580610a0c575b156109d557604051936107ea85610d25565b6002855260403660208701376040519061080382610d09565b60038252606036602084013761012c420142116105ad576004976020926040519761082d89610ced565b6044358952606435858a01526040890152606088015260018060a01b0316608087015261012c420160a0870152604051978880926305fc47b360e21b825260018060a01b03165afa9081156104d15761ffff6020926004986000916109b8575b501661089c6040870151610eac565b526040516305fc47b360e21b815296879182906001600160a01b03165afa9384156104d15761ffff6020956109249760009161099b575b50166108e26040860151610ecf565b5260018060a01b03166108f86060850151610eac565b5260018060a01b031661090e6060840151610ecf565b5260018060a01b03166103f66060830151610edf565b038160007f00000000000000000000000000000000000000000000000000000000000000006001600160a01b03165af19081156104d157600091610969575b50610452565b90506020813d602011610993575b8161098460209383610d41565b810103126100c7575181610963565b3d9150610977565b6109b29150873d89116105a6576105988183610d41565b886108d3565b6109cf9150843d86116105a6576105988183610d41565b8961088d565b60405162461bcd60e51b815260206004820152600f60248201526e14185a5c9cc81b9bdd08199bdd5b99608a1b6044820152606490fd5b506001600160a01b03811615156107d8565b60405162461bcd60e51b815260206004820152600e60248201526d139bc81c9bdd5d1948199bdd5b9960921b6044820152606490fd5b610ab5610ac49260405190602082015260018060a01b037f00000000000000000000000000000000000000000000000000000000000000001660248201526000604482015260448152610aa681610d09565b6001600160a01b038516610e50565b6001600160a01b038316610e50565b8480610282565b909150610ae857506001600160a01b0383163b15155b878061027a565b600114610ae1565b90506020813d602011610b1a575b81610b0b60209383610d41565b810103126100c75751856101fd565b3d9150610afe565b346100c75760003660031901126100c7576020604051739702230a8ea53601f5cd2dc00fdbc13d4df4a8c78152f35b346100c75760003660031901126100c7576040517f00000000000000000000000000000000000000000000000000000000000000006001600160a01b03168152602090f35b346100c75760003660031901126100c757602060405173b97ef9ef8734c71904d8002f8b6bc66dd9c48a6e8152f35b346100c75760003660031901126100c757602060405173b31f66aa3c1e785363f0875a1b74e27b85fd66c78152f35b346100c75760603660031901126100c7576020610c23610c12610cc1565b610c1a610cd7565b60443591610d63565b604051908152f35b346100c75760003660031901126100c7576040810181811067ffffffffffffffff8211176105c357604052600c81526020906b2a3930b232b92537b2902b1960a11b82820152604051828193825282519081818401526000935b828510610ca8575050604092506000838284010152601f80199101168101030190f35b8481018201518686016040015293810193859350610c85565b600435906001600160a01b03821682036100c757565b602435906001600160a01b03821682036100c757565b60c0810190811067ffffffffffffffff8211176105c357604052565b6080810190811067ffffffffffffffff8211176105c357604052565b6060810190811067ffffffffffffffff8211176105c357604052565b90601f8019910116810190811067ffffffffffffffff8211176105c357604052565b91610d6e82846111f5565b6001600160a01b039390848116610e42575073b31f66aa3c1e785363f0875a1b74e27b85fd66c78085831614159081610e35575b50610de3575b60405162461bcd60e51b8152602060048201526013602482015272139bc81d985b1a59081c185a5c88199bdd5b99606a1b6044820152606490fd5b610df5610def82610f32565b936110a0565b9380841615159081610e29575b5015610da857610e1192611428565b80610e1d578080610da8565b610e26916113d1565b90565b90508416151538610e02565b9050848416141538610da2565b90919250610e269350611428565b906000602091828151910182855af1156104d1576000513d610ea357506001600160a01b0381163b155b610e815750565b604051635274afe760e01b81526001600160a01b039091166004820152602490fd5b60011415610e7a565b805115610eb95760200190565b634e487b7160e01b600052603260045260246000fd5b805160011015610eb95760400190565b805160021015610eb95760600190565b805160031015610eb95760800190565b805160041015610eb95760a00190565b8051821015610eb95760209160051b010190565b60001981146105ad5760010190565b60408051610f3f81610ced565b60058152602060a0368284013760019384610f5984610eac565b526005610f6584610ecf565b52600a610f7184610edf565b526014610f7d84610eef565b526032610f8984610eff565b526001600160a01b03927f00000000000000000000000000000000000000000000000000000000000000008416906000875b610fcd575b5050505050505050600090565b815181101561109b5761ffff610fe38284610f0f565b51885163d6d0de2b60e01b8152868916600482015273b31f66aa3c1e785363f0875a1b74e27b85fd66c76024820152911660448201528581606481875afa809160009161105e575b5090611041575061103b90610f23565b87610fbb565b868116611052575061103b90610f23565b97505050505050505090565b8781813d8311611094575b6110738183610d41565b81010312611090575190888216820361108d57503861102b565b80fd5b5080fd5b503d611069565b610fc0565b604080516110ad81610ced565b60058152602060a03682840137600193846110c784610eac565b5260056110d384610ecf565b52600a6110df84610edf565b5260146110eb84610eef565b5260326110f784610eff565b526001600160a01b03927f00000000000000000000000000000000000000000000000000000000000000008416906000875b61113a575050505050505050600090565b815181101561109b5761ffff6111508284610f0f565b51885163d6d0de2b60e01b815273b31f66aa3c1e785363f0875a1b74e27b85fd66c760048201528689166024820152911660448201528581606481875afa80916000916111bf575b50906111ae57506111a890610f23565b87611129565b86811661105257506111a890610f23565b8781813d83116111ee575b6111d48183610d41565b81010312611090575190888216820361108d575038611198565b503d6111ca565b90604091825161120481610ced565b6005815260209060a0368383013760019481866112218194610eac565b52600561122d82610ecf565b52600a61123982610edf565b52601461124582610eef565b52603261125182610eff565b526001600160a01b03947f00000000000000000000000000000000000000000000000000000000000000008616936000905b611296575b505050505050505050600090565b825181101561134c5761ffff6112ac8285610f0f565b51855163d6d0de2b60e01b8152848a1660048201528a8a166024820152911660448201528681606481895afa8091600091611316575b50906112f857506112f290610f23565b88611283565b87811661130957506112f290610f23565b9850505050505050505090565b8881813d8311611345575b61132b8183610d41565b81010312611090575190898216820361108d5750386112e2565b503d611321565b611288565b604051636d2e004f60e01b81526001600160a01b039283166004820152670de0b6b3a764000060248201529160609183916044918391165afa6000918161139e575b50610e265750600090565b90916060823d82116113c9575b816113b860609383610d41565b8101031261108d5750519038611393565b3d91506113ab565b604051636d2e004f60e01b815273b31f66aa3c1e785363f0875a1b74e27b85fd66c760048201526024810192909252606090829060449082906001600160a01b03165afa6000918161139e5750610e265750600090565b604051636d2e004f60e01b81526001600160a01b039283166004820152602481019390935260609183916044918391165afa6000918161139e5750610e265750600090565b908160209103126100c7575161ffff811681036100c75790565b908160209103126100c757516001600160a01b03811681036100c75790565b60209182825260e082019281518184015280820151604084015260408201519360c06060850152845180915281610100850195019060005b81811061154e575050506060820151838503601f190160808501528051808652948201949082019160005b828110611531575050505060a060c091600180831b0360808201511682850152015191015290565b83516001600160a01b031687529581019592810192600101611509565b8251875295830195918301916001016114de56fea2646970667358221220caa7798094d6aa3484e9ec0edcc7be2550c11b250cd4f32d908323b6203e797764736f6c63430008140033",
  "linkReferences": {},
  "deployedLinkReferences": {}
}