{"contracts/mocks/MockDexAdapter.sol":{"MockDexAdapter":{"abi":[{"inputs":[],"stateMutability":"nonpayable","type":"constructor"},{"inputs":[{"internalType":"address","name":"token","type":"address"}],"name":"SafeERC20FailedOperation","type":"error"},{"inputs":[],"name":"dexName","outputs":[{"internalType":"string","name":"","type":"string"}],"stateMutability":"pure","type":"function"},{"inputs":[{"internalType":"address","name":"","type":"address"},{"internalType":"address","name":"","type":"address"},{"internalType":"uint256","name":"amountIn","type":"uint256"}],"name":"getAmountOut","outputs":[{"internalType":"uint256","name":"amountOut","type":"uint256"}],"stateMutability":"view","type":"function"},{"inputs":[{"internalType":"address","name":"","type":"address"},{"internalType":"address","name":"","type":"address"}],"name":"hasPool","outputs":[{"internalType":"bool","name":"","type":"bool"}],"stateMutability":"pure","type":"function"},{"inputs":[],"name":"rate","outputs":[{"internalType":"uint256","name":"","type":"uint256"}],"stateMutability":"view","type":"function"},{"inputs":[{"internalType":"uint256","name":"_rate","type":"uint256"}],"name":"setRate","outputs":[],"stateMutability":"nonpayable","type":"function"},{"inputs":[{"internalType":"bool","name":"_shouldFail","type":"bool"}],"name":"setShouldFail","outputs":[],"stateMutability":"nonpayable","type":"function"},{"inputs":[],"name":"shouldFail","outputs":[{"internalType":"bool","name":"","type":"bool"}],"stateMutability":"view","type":"function"},{"inputs":[{"internalType":"address","name":"tokenIn","type":"address"},{"internalType":"address","name":"tokenOut","type":"address"},{"internalType":"uint256","name":"amountIn","type":"uint256"},{"internalType":"uint256","name":"minAmountOut","type":"uint256"},{"internalType":"address","name":"recipient","type":"address"}],"name":"swap","outputs":[{"internalType":"uint256","name":"amountOut","type":"uint256"}],"stateMutability":"nonpayable","type":"function"}],"evm":{"bytecode":{"linkReferences":{},"object":"6080604052670de0b6b3a76400006000556001805460ff1916905534801561002657600080fd5b506105de806100366000396000f3fe608060405234801561001057600080fd5b50600436106100885760003560e01c8063678d22041161005b578063678d2204146100fe578063a5aa5c121461011b578063d5bcb9b51461013c578063d6432fab1461014f57600080fd5b806312009f271461008d5780632c4e722e146100bf57806334fcf437146100d65780634aa06652146100eb575b600080fd5b604080518082018252600781526609adec6d688caf60cb1b602082015290516100b691906103ae565b60405180910390f35b6100c860005481565b6040519081526020016100b6565b6100e96100e43660046103fc565b600055565b005b6100c86100f9366004610431565b610162565b60015461010b9060ff1681565b60405190151581526020016100b6565b6100e961012936600461046d565b6001805460ff1916911515919091179055565b6100c861014a366004610496565b6101ba565b61010b61015d3660046104ed565b610291565b60015460009060ff16156101915760405162461bcd60e51b815260040161018890610520565b60405180910390fd5b670de0b6b3a7640000600054836101a89190610561565b6101b29190610586565b949350505050565b60015460009060ff16156101e05760405162461bcd60e51b815260040161018890610520565b670de0b6b3a7640000600054856101f79190610561565b6102019190610586565b90508281101561025f5760405162461bcd60e51b815260206004820152602360248201527f4d6f636b446578416461707465723a20496e73756666696369656e74206f75746044820152621c1d5d60ea1b6064820152608401610188565b6102746001600160a01b03871633308761029a565b6102886001600160a01b0386168383610307565b95945050505050565b60015b92915050565b6040516001600160a01b0384811660248301528381166044830152606482018390526103019186918216906323b872dd906084015b604051602081830303815290604052915060e01b6020820180516001600160e01b03838183161783525050505061033d565b50505050565b6040516001600160a01b0383811660248301526044820183905261033891859182169063a9059cbb906064016102cf565b505050565b600080602060008451602086016000885af180610360576040513d6000823e3d81fd5b50506000513d91508115610378578060011415610385565b6001600160a01b0384163b155b1561030157604051635274afe760e01b81526001600160a01b0385166004820152602401610188565b600060208083528351808285015260005b818110156103db578581018301518582016040015282016103bf565b506000604082860101526040601f19601f8301168501019250505092915050565b60006020828403121561040e57600080fd5b5035919050565b80356001600160a01b038116811461042c57600080fd5b919050565b60008060006060848603121561044657600080fd5b61044f84610415565b925061045d60208501610415565b9150604084013590509250925092565b60006020828403121561047f57600080fd5b8135801515811461048f57600080fd5b9392505050565b600080600080600060a086880312156104ae57600080fd5b6104b786610415565b94506104c560208701610415565b935060408601359250606086013591506104e160808701610415565b90509295509295909350565b6000806040838503121561050057600080fd5b61050983610415565b915061051760208401610415565b90509250929050565b60208082526021908201527f4d6f636b446578416461707465723a2053696d756c61746564206661696c75726040820152606560f81b606082015260800190565b808202811582820484141761029457634e487b7160e01b600052601160045260246000fd5b6000826105a357634e487b7160e01b600052601260045260246000fd5b50049056fea2646970667358221220d92162195657715eecb28cff1bb49551fd54824caf1446c6e69563808a99ab3f64736f6c63430008140033","opcodes":"PUSH1 0x80 PUSH1 0x40 MSTORE PUSH8 0xDE0B6B3A7640000 PUSH1 0x0 SSTORE PUSH1 0x1 DUP1 SLOAD PUSH1 0xFF NOT AND SWAP1 SSTORE CALLVALUE DUP1 ISZERO PUSH2 0x26 JUMPI PUSH1 0x0 DUP1 REVERT JUMPDEST POP PUSH2 0x5DE DUP1 PUSH2 0x36 PUSH1 0x0 CODECOPY PUSH1 0x0 RETURN INVALID PUSH1 0x80 PUSH1 0x40 MSTORE CALLVALUE DUP1 ISZERO PUSH2 0x10 JUMPI PUSH1 0x0 DUP1 REVERT JUMPDEST POP PUSH1 0x4 CALLDATASIZE LT PUSH2 0x88 JUMPI PUSH1 0x0 CALLDATALOAD PUSH1 0xE0 SHR DUP1 PUSH4 0x678D2204 GT PUSH2 0x5B JUMPI DUP1 PUSH4 0x678D2204 EQ PUSH2 0xFE JUMPI DUP1 PUSH4 0xA5AA5C12 EQ PUSH2 0x11B JUMPI DUP1 PUSH4 0xD5BCB9B5 EQ PUSH2 0x13C JUMPI DUP1 PUSH4 0xD6432FAB EQ PUSH2 0x14F JUMPI PUSH1 0x0 DUP1 REVERT JUMPDEST DUP1 PUSH4 0x12009F27 EQ PUSH2 0x8D JUMPI DUP1 PUSH4 0x2C4E722E EQ PUSH2 0xBF JUMPI DUP1 PUSH4 0x34FCF437 EQ PUSH2 0xD6 JUMPI DUP1 PUSH4 0x4AA06652 EQ PUSH2 0xEB JUMPI JUMPDEST PUSH1 0x0 DUP1 REVERT JUMPDEST PUSH1 0x40 DUP1 MLOAD DUP1 DUP3 ADD DUP3 MSTORE PUSH1 0x7 DUP2 MSTORE PUSH7 0x9ADEC6D688CAF PUSH1 0xCB SHL PUSH1 0x20 DUP3 ADD MSTORE SWAP1 MLOAD PUSH2 0xB6 SWAP2 SWAP1 PUSH2 0x3AE JUMP JUMPDEST PUSH1 0x40 MLOAD DUP1 SWAP2 SUB SWAP1 RETURN JUMPDEST PUSH2 0xC8 PUSH1 0x0 SLOAD DUP2 JUMP JUMPDEST PUSH1 0x40 MLOAD SWAP1 DUP2 MSTORE PUSH1 0x20 ADD PUSH2 0xB6 JUMP JUMPDEST PUSH2 0xE9 PUSH2 0xE4 CALLDATASIZE PUSH1 0x4 PUSH2 0x3FC JUMP JUMPDEST PUSH1 0x0 SSTORE JUMP JUMPDEST STOP JUMPDEST PUSH2 0xC8 PUSH2 0xF9 CALLDATASIZE PUSH1 0x4 PUSH2 0x431 JUMP JUMPDEST PUSH2 0x162 JUMP JUMPDEST PUSH1 0x1 SLOAD PUSH2 0x10B SWAP1 PUSH1 0xFF AND DUP2 JUMP JUMPDEST PUSH1 0x40 MLOAD SWAP1 ISZERO ISZERO DUP2 MSTORE PUSH1 0x20 ADD PUSH2 0xB6 JUMP JUMPDEST PUSH2 0xE9 PUSH2 0x129 CALLDATASIZE PUSH1 0x4 PUSH2 0x46D JUMP JUMPDEST PUSH1 0x1 DUP1 SLOAD PUSH1 0xFF NOT AND SWAP2 ISZERO ISZERO SWAP2 SWAP1 SWAP2 OR SWAP1 SSTORE JUMP JUMPDEST PUSH2 0xC8 PUSH2 0x14A CALLDATASIZE PUSH1 0x4 PUSH2 0x496 JUMP JUMPDEST PUSH2 0x1BA JUMP JUMPDEST PUSH2 0x10B PUSH2 0x15D CALLDATASIZE PUSH1 0x4 PUSH2 0x4ED JUMP JUMPDEST PUSH2 0x291 JUMP JUMPDEST PUSH1 0x1 SLOAD PUSH1 0x0 SWAP1 PUSH1 0xFF AND ISZERO PUSH2 0x191 JUMPI PUSH1 0x40 MLOAD PUSH3 0x461BCD PUSH1 0xE5 SHL DUP2 MSTORE PUSH1 0x4 ADD PUSH2 0x188 SWAP1 PUSH2 0x520 JUMP JUMPDEST PUSH1 0x40 MLOAD DUP1 SWAP2 SUB SWAP1 REVERT JUMPDEST PUSH8 0xDE0B6B3A7640000 PUSH1 0x0 SLOAD DUP4 PUSH2 0x1A8 SWAP2 SWAP1 PUSH2 0x561 JUMP JUMPDEST PUSH2 0x1B2 SWAP2 SWAP1 PUSH2 0x586 JUMP JUMPDEST SWAP5 SWAP4 POP POP POP POP JUMP JUMPDEST PUSH1 0x1 SLOAD PUSH1 0x0 SWAP1 PUSH1 0xFF AND ISZERO PUSH2 0x1E0 JUMPI PUSH1 0x40 MLOAD PUSH3 0x461BCD PUSH1 0xE5 SHL DUP2 MSTORE PUSH1 0x4 ADD PUSH2 0x188 SWAP1 PUSH2 0x520 JUMP JUMPDEST PUSH8 0xDE0B6B3A7640000 PUSH1 0x0 SLOAD DUP6 PUSH2 0x1F7 SWAP2 SWAP1 PUSH2 0x561 JUMP JUMPDEST PUSH2 0x201 SWAP2 SWAP1 PUSH2 0x586 JUMP JUMPDEST SWAP1 POP DUP3 DUP2 LT ISZERO PUSH2 0x25F JUMPI PUSH1 0x40 MLOAD PUSH3 0x461BCD PUSH1 0xE5 SHL DUP2 MSTORE PUSH1 0x20 PUSH1 0x4 DUP3 ADD MSTORE PUSH1 0x23 PUSH1 0x24 DUP3 ADD MSTORE PUSH32 0x4D6F636B446578416461707465723A20496E73756666696369656E74206F7574 PUSH1 0x44 DUP3 ADD MSTORE PUSH3 0x1C1D5D PUSH1 0xEA SHL PUSH1 0x64 DUP3 ADD MSTORE PUSH1 0x84 ADD PUSH2 0x188 JUMP JUMPDEST PUSH2 0x274 PUSH1 0x1 PUSH1 0x1 PUSH1 0xA0 SHL SUB DUP8 AND CALLER ADDRESS DUP8 PUSH2 0x29A JUMP JUMPDEST PUSH2 0x288 PUSH1 0x1 PUSH1 0x1 PUSH1 0xA0 SHL SUB DUP7 AND DUP4 DUP4 PUSH2 0x307 JUMP JUMPDEST SWAP6 SWAP5 POP POP POP POP POP JUMP JUMPDEST PUSH1 0x1 JUMPDEST SWAP3 SWAP2 POP POP JUMP JUMPDEST PUSH1 0x40 MLOAD PUSH1 0x1 PUSH1 0x1 PUSH1 0xA0 SHL SUB DUP5 DUP2 AND PUSH1 0x24 DUP4 ADD MSTORE DUP4 DUP2 AND PUSH1 0x44 DUP4 ADD MSTORE PUSH1 0x64 DUP3 ADD DUP4 SWAP1 MSTORE PUSH2 0x301 SWAP2 DUP7 SWAP2 DUP3 AND SWAP1 PUSH4 0x23B872DD SWAP1 PUSH1 0x84 ADD JUMPDEST PUSH1 0x40 MLOAD PUSH1 0x20 DUP2 DUP4 SUB SUB DUP2 MSTORE SWAP1 PUSH1 0x40 MSTORE SWAP2 POP PUSH1 0xE0 SHL PUSH1 0x20 DUP3 ADD DUP1 MLOAD PUSH1 0x1 PUSH1 0x1 PUSH1 0xE0 SHL SUB DUP4 DUP2 DUP4 AND OR DUP4 MSTORE POP POP POP POP PUSH2 0x33D JUMP JUMPDEST POP POP POP POP JUMP JUMPDEST PUSH1 0x40 MLOAD PUSH1 0x1 PUSH1 0x1 PUSH1 0xA0 SHL SUB DUP4 DUP2 AND PUSH1 0x24 DUP4 ADD MSTORE PUSH1 0x44 DUP3 ADD DUP4 SWAP1 MSTORE PUSH2 0x338 SWAP2 DUP6 SWAP2 DUP3 AND SWAP1 PUSH4 0xA9059CBB SWAP1 PUSH1 0x64 ADD PUSH2 0x2CF JUMP JUMPDEST POP POP POP JUMP JUMPDEST PUSH1 0x0 DUP1 PUSH1 0x20 PUSH1 0x0 DUP5 MLOAD PUSH1 0x20 DUP7 ADD PUSH1 0x0 DUP9 GAS CALL DUP1 PUSH2 0x360 JUMPI PUSH1 0x40 MLOAD RETURNDATASIZE PUSH1 0x0 DUP3 RETURNDATACOPY RETURNDATASIZE DUP2 REVERT JUMPDEST POP POP PUSH1 0x0 MLOAD RETURNDATASIZE SWAP2 POP DUP2 ISZERO PUSH2 0x378 JUMPI DUP1 PUSH1 0x1 EQ ISZERO PUSH2 0x385 JUMP JUMPDEST PUSH1 0x1 PUSH1 0x1 PUSH1 0xA0 SHL SUB DUP5 AND EXTCODESIZE ISZERO JUMPDEST ISZERO PUSH2 0x301 JUMPI PUSH1 0x40 MLOAD PUSH4 0x5274AFE7 PUSH1 0xE0 SHL DUP2 MSTORE PUSH1 0x1 PUSH1 0x1 PUSH1 0xA0 SHL SUB DUP6 AND PUSH1 0x4 DUP3 ADD MSTORE PUSH1 0x24 ADD PUSH2 0x188 JUMP JUMPDEST PUSH1 0x0 PUSH1 0x20 DUP1 DUP4 MSTORE DUP4 MLOAD DUP1 DUP3 DUP6 ADD MSTORE PUSH1 0x0 JUMPDEST DUP2 DUP2 LT ISZERO PUSH2 0x3DB JUMPI DUP6 DUP2 ADD DUP4 ADD MLOAD DUP6 DUP3 ADD PUSH1 0x40 ADD MSTORE DUP3 ADD PUSH2 0x3BF JUMP JUMPDEST POP PUSH1 0x0 PUSH1 0x40 DUP3 DUP7 ADD ADD MSTORE PUSH1 0x40 PUSH1 0x1F NOT PUSH1 0x1F DUP4 ADD AND DUP6 ADD ADD SWAP3 POP POP POP SWAP3 SWAP2 POP POP JUMP JUMPDEST PUSH1 0x0 PUSH1 0x20 DUP3 DUP5 SUB SLT ISZERO PUSH2 0x40E JUMPI PUSH1 0x0 DUP1 REVERT JUMPDEST POP CALLDATALOAD SWAP2 SWAP1 POP JUMP JUMPDEST DUP1 CALLDATALOAD PUSH1 0x1 PUSH1 0x1 PUSH1 0xA0 SHL SUB DUP2 AND DUP2 EQ PUSH2 0x42C JUMPI PUSH1 0x0 DUP1 REVERT JUMPDEST SWAP2 SWAP1 POP JUMP JUMPDEST PUSH1 0x0 DUP1 PUSH1 0x0 PUSH1 0x60 DUP5 DUP7 SUB SLT ISZERO PUSH2 0x446 JUMPI PUSH1 0x0 DUP1 REVERT JUMPDEST PUSH2 0x44F DUP5 PUSH2 0x415 JUMP JUMPDEST SWAP3 POP PUSH2 0x45D PUSH1 0x20 DUP6 ADD PUSH2 0x415 JUMP JUMPDEST SWAP2 POP PUSH1 0x40 DUP5 ADD CALLDATALOAD SWAP1 POP SWAP3 POP SWAP3 POP SWAP3 JUMP JUMPDEST PUSH1 0x0 PUSH1 0x20 DUP3 DUP5 SUB SLT ISZERO PUSH2 0x47F JUMPI PUSH1 0x0 DUP1 REVERT JUMPDEST DUP2 CALLDATALOAD DUP1 ISZERO ISZERO DUP2 EQ PUSH2 0x48F JUMPI PUSH1 0x0 DUP1 REVERT JUMPDEST SWAP4 SWAP3 POP POP POP JUMP JUMPDEST PUSH1 0x0 DUP1 PUSH1 0x0 DUP1 PUSH1 0x0 PUSH1 0xA0 DUP7 DUP9 SUB SLT ISZERO PUSH2 0x4AE JUMPI PUSH1 0x0 DUP1 REVERT JUMPDEST PUSH2 0x4B7 DUP7 PUSH2 0x415 JUMP JUMPDEST SWAP5 POP PUSH2 0x4C5 PUSH1 0x20 DUP8 ADD PUSH2 0x415 JUMP JUMPDEST SWAP4 POP PUSH1 0x40 DUP7 ADD CALLDATALOAD SWAP3 POP PUSH1 0x60 DUP7 ADD CALLDATALOAD SWAP2 POP PUSH2 0x4E1 PUSH1 0x80 DUP8 ADD PUSH2 0x415 JUMP JUMPDEST SWAP1 POP SWAP3 SWAP6 POP SWAP3 SWAP6 SWAP1 SWAP4 POP JUMP JUMPDEST PUSH1 0x0 DUP1 PUSH1 0x40 DUP4 DUP6 SUB SLT ISZERO PUSH2 0x500 JUMPI PUSH1 0x0 DUP1 REVERT JUMPDEST PUSH2 0x509 DUP4 PUSH2 0x415 JUMP JUMPDEST SWAP2 POP PUSH2 0x517 PUSH1 0x20 DUP5 ADD PUSH2 0x415 JUMP JUMPDEST SWAP1 POP SWAP3 POP SWAP3 SWAP1 POP JUMP JUMPDEST PUSH1 0x20 DUP1 DUP3 MSTORE PUSH1 0x21 SWAP1 DUP3 ADD MSTORE PUSH32 0x4D6F636B446578416461707465723A2053696D756C61746564206661696C7572 PUSH1 0x40 DUP3 ADD MSTORE PUSH1 0x65 PUSH1 0xF8 SHL PUSH1 0x60 DUP3 ADD MSTORE PUSH1 0x80 ADD SWAP1 JUMP JUMPDEST DUP1 DUP3 MUL DUP2 ISZERO DUP3 DUP3 DIV DUP5 EQ OR PUSH2 0x294 JUMPI PUSH4 0x4E487B71 PUSH1 0xE0 SHL PUSH1 0x0 MSTORE PUSH1 0x11 PUSH1 0x4 MSTORE PUSH1 0x24 PUSH1 0x0 REVERT JUMPDEST PUSH1 0x0 DUP3 PUSH2 0x5A3 JUMPI PUSH4 0x4E487B71 PUSH1 0xE0 SHL PUSH1 0x0 MSTORE PUSH1 0x12 PUSH1 0x4 MSTORE PUSH1 0x24 PUSH1 0x0 REVERT JUMPDEST POP DIV SWAP1 JUMP INVALID LOG2 PUSH5 0x6970667358 0x22 SLT KECCAK256 0xD9 0x21 PUSH3 0x195657 PUSH18 0x5EECB28CFF1BB49551FD54824CAF1446C6E6 SWAP6 PUSH4 0x808A99AB EXTCODEHASH PUSH5 0x736F6C6343 STOP ADDMOD EQ STOP CALLER "},"methodIdentifiers":{"dexName()":"12009f27","getAmountOut(address,address,uint256)":"4aa06652","hasPool(address,address)":"d6432fab","rate()":"2c4e722e","setRate(uint256)":"34fcf437","setShouldFail(bool)":"a5aa5c12","shouldFail()":"678d2204","swap(address,address,uint256,uint256,address)":"d5bcb9b5"}}}}}