{
  "_format": "hh-sol-artifact-1",
  "contractName": "PangolinAdapter",
  "sourceName": "contracts/adapters/PangolinAdapter.sol",
  "abi": [
    {
      "inputs": [
        {
          "internalType": "contract IPangolinRouter",
          "name": "_router",
          "type": "address"
        },
        {
          "internalType": "address",
          "name": "_factory",
          "type": "address"
        }
      ],
      "stateMutability": "nonpayable",
      "type": "constructor"
    },
    {
      "inputs": [
        {
          "internalType": "address",
          "name": "token",
          "type": "address"
        }
      ],
      "name": "SafeERC20FailedOperation",
      "type": "error"
    },
    {
      "inputs": [],
      "name": "USDC",
      "outputs": [
        {
          "internalType": "address",
          "name": "",
          "type": "address"
        }
      ],
      "stateMutability": "view",
      "type": "function"
    },
    {
      "inputs": [],
      "name": "USDT",
      "outputs": [
        {
          "internalType": "address",
          "name": "",
          "type": "address"
        }
      ],
      "stateMutability": "view",
      "type": "function"
    },
    {
      "inputs": [],
      "name": "WAVAX",
      "outputs": [
        {
          "internalType": "address",
          "name": "",
          "type": "address"
        }
      ],
      "stateMutability": "view",
      "type": "function"
    },
    {
      "inputs": [],
      "name": "dexName",
      "outputs": [
        {
          "internalType": "string",
          "name": "",
          "type": "string"
        }
      ],
      "stateMutability": "pure",
      "type": "function"
    },
    {
      "inputs": [],
      "name": "factory",
      "outputs": [
        {
          "internalType": "address",
          "name": "",
          "type": "address"
        }
      ],
      "stateMutability": "view",
      "type": "function"
    },
    {
      "inputs": [
        {
          "internalType": "address",
          "name": "tokenIn",
          "type": "address"
        },
        {
          "internalType": "address",
          "name": "tokenOut",
          "type": "address"
        },
        {
          "internalType": "uint256",
          "name": "amountIn",
          "type": "uint256"
        }
      ],
      "name": "getAmountOut",
      "outputs": [
        {
          "internalType": "uint256",
          "name": "amountOut",
          "type": "uint256"
        }
      ],
      "stateMutability": "view",
      "type": "function"
    },
    {
      "inputs": [
        {
          "internalType": "address",
          "name": "tokenIn",
          "type": "address"
        },
        {
          "internalType": "address",
          "name": "tokenOut",
          "type": "address"
        }
      ],
      "name": "hasPool",
      "outputs": [
        {
          "internalType": "bool",
          "name": "",
          "type": "bool"
        }
      ],
      "stateMutability": "view",
      "type": "function"
    },
    {
      "inputs": [],
      "name": "router",
      "outputs": [
        {
          "internalType": "contract IPangolinRouter",
          "name": "",
          "type": "address"
        }
      ],
      "stateMutability": "view",
      "type": "function"
    },
    {
      "inputs": [
        {
          "internalType": "address",
          "name": "tokenIn",
          "type": "address"
        },
        {
          "internalType": "address",
          "name": "tokenOut",
          "type": "address"
        },
        {
          "internalType": "uint256",
          "name": "amountIn",
          "type": "uint256"
        },
        {
          "internalType": "uint256",
          "name": "minAmountOut",
          "type": "uint256"
        },
        {
          "internalType": "address",
          "name": "recipient",
          "type": "address"
        }
      ],
      "name": "swap",
      "outputs": [
        {
          "internalType": "uint256",
          "name": "amountOut",
          "type": "uint256"
        }
      ],
      "stateMutability": "nonpayable",
      "type": "function"
    }
  ],
  "bytecode": "0x60c0346100a057601f610ce238819003918201601f19168301916001600160401b038311848410176100a55780849260409485528339810103126100a05780516001600160a01b039182821682036100a0576020015191821682036100a05760805260a052604051610c2690816100bc8239608051818181609b015281816101c5015281816109290152610a08015260a0518181816105590152610b2a0152f35b600080fd5b634e487b7160e01b600052604160045260246000fdfe608060408181526004918236101561001657600080fd5b600092833560e01c91826312009f271461061f575081634aa06652146105e657816373b295c2146105b757816389a3027114610588578163c45a015514610544578163c54e44eb14610515578163d5bcb9b51461010f57508063d6432fab146100ce5763f887ea401461008857600080fd5b346100ca57816003193601126100ca57517f00000000000000000000000000000000000000000000000000000000000000006001600160a01b03168152602090f35b5080fd5b50346100ca57806003193601126100ca576020906100ea6106bb565b6001600160a01b0390610105906100ff6106d6565b90610afc565b1615159051908152f35b8383346100ca5760a03660031901126100ca5761012a6106bb565b926101336106d6565b606435936044916001600160a01b03919060843590843590848316830361051157848a169988519560209b6323b872dd60e01b8d8901526024973389820152308a8201528560648201526064815260a0810181811067ffffffffffffffff8211176104ff578e6101b08d9897969594938f93610204945284610aa0565b8d51636eb1769f60e11b8152309881019889527f000000000000000000000000000000000000000000000000000000000000000085166001600160a01b03811660208b015298909283918291604090910190565b0381855afa9081156104f5578f8a926104c3575b50508581018091116104b15790898f93928e8b918e8b835194898181880163095ea7b360e01b96878252858b8b0152868a0152858952610257896106ec565b885190828c5af1903d81519183610493575b5050501561045b575b505050505050816102838686610afc565b16156103a3575050509061029691610b9f565b9261012c420190814211610391579185896102c98296948e968e51998a98899788966338ed173960e01b88528701610a67565b03925af1908115610387578291610365575b50905b8151600019810191908211610353578251821015610341575060051b0186015194851061030e5750505051908152f35b9060117014db1a5c1c1859d948195e18d959591959607a1b9287606496519562461bcd60e51b8752860152840152820152fd5b634e487b7160e01b8152603286528390fd5b634e487b7160e01b8152601186528390fd5b61038191503d8084833e610379818361071e565b810190610740565b886102db565b86513d84823e3d90fd5b634e487b7160e01b8652601189528686fd5b90919693925060608c51976103b7896106ec565b6003895236908901376103c9876107f9565b5273b31f66aa3c0e6c59128b16a7e6757b4a7d5b2d6c6103e88761081c565b526103f28661082c565b9116905261012c420190814211610391579185896104288296948e968e51998a98899788966338ed173960e01b88528701610a67565b03925af1908115610387578291610441575b50906102de565b61045591503d8084833e610379818361071e565b8861043a565b610488956104829451938a8501528301528d81830152815261047c816106ec565b84610aa0565b82610aa0565b89388e818e8b610272565b509091506104a95750863b15155b8f3881610269565b6001146104a1565b634e487b7160e01b895260118c528989fd5b90809250813d83116104ee575b6104da818361071e565b810103126104ea57518f8f610218565b8880fd5b503d6104d0565b8d513d8b823e3d90fd5b634e487b7160e01b895260418c528989fd5b8380fd5b5050346100ca57816003193601126100ca5760209051739702230a8ea53601f5cd2dc00fdbc13d4df4a8c78152f35b5050346100ca57816003193601126100ca57517f00000000000000000000000000000000000000000000000000000000000000006001600160a01b03168152602090f35b5050346100ca57816003193601126100ca576020905173b97ef9ef8734c71904d8002f8b6bc66dd9c48a6e8152f35b5050346100ca57816003193601126100ca576020905173b31f66aa3c0e6c59128b16a7e6757b4a7d5b2d6c8152f35b5050346100ca5760603660031901126100ca576020906106186106076106bb565b61060f6106d6565b6044359161083c565b9051908152f35b9150346105115783600319360112610511578282019082821067ffffffffffffffff8311176106a85750825260088152602090672830b733b7b634b760c11b8282015282519382859384528251928382860152825b84811061069257505050828201840152601f01601f19168101030190f35b8181018301518882018801528795508201610674565b634e487b7160e01b855260419052602484fd5b600435906001600160a01b03821682036106d157565b600080fd5b602435906001600160a01b03821682036106d157565b6080810190811067ffffffffffffffff82111761070857604052565b634e487b7160e01b600052604160045260246000fd5b90601f8019910116810190811067ffffffffffffffff82111761070857604052565b9060209081838203126106d157825167ffffffffffffffff938482116106d1570181601f820112156106d1578051938411610708578360051b906040519461078a8584018761071e565b855283808601928201019283116106d1578301905b8282106107ad575050505090565b8151815290830190830161079f565b90815180825260208080930193019160005b8281106107dc575050505090565b83516001600160a01b0316855293810193928101926001016107ce565b8051156108065760200190565b634e487b7160e01b600052603260045260246000fd5b8051600110156108065760400190565b8051600210156108065760600190565b9091906001600160a01b0390816108538583610afc565b166109c95781169073b31f66aa3c0e6c59128b16a7e6757b4a7d5b2d6c9283831415806109bd575b6108ba5760405162461bcd60e51b8152602060048201526013602482015272139bc81d985b1a59081c185a5c88199bdd5b99606a1b6044820152606490fd5b61092594600094604051946108ce866106ec565b6003865260603660208801376108e3866107f9565b526108ed8561081c565b52826108f88561082c565b9116905260405180958194829363d06ca61f60e01b845260048401526040602484015260448301906107bc565b03917f0000000000000000000000000000000000000000000000000000000000000000165afa600091816109a2575b506109955760405162461bcd60e51b8152602060048201526014602482015273139bc81d985b1a59081c9bdd5d1948199bdd5b9960621b6044820152606490fd5b61099e9061082c565b5190565b6109b691923d8091833e610379818361071e565b9038610954565b5083828616141561087b565b906109da610a049460009493610b9f565b9160405180958194829363d06ca61f60e01b845260048401526040602484015260448301906107bc565b03917f0000000000000000000000000000000000000000000000000000000000000000165afa8015610a5b5761099e91600091610a42575b5061081c565b610a55913d8091833e610379818361071e565b38610a3c565b6040513d6000823e3d90fd5b9192608093610a8c92979695978452602084015260a0604084015260a08301906107bc565b6001600160a01b0390951660608201520152565b906000602091828151910182855af115610a5b576000513d610af357506001600160a01b0381163b155b610ad15750565b604051635274afe760e01b81526001600160a01b039091166004820152602490fd5b60011415610aca565b60405163e6a4390560e01b81526001600160a01b0391821660048201529181166024830152906020816044817f000000000000000000000000000000000000000000000000000000000000000086165afa908115610a5b57600091610b62575b50905090565b6020813d8211610b97575b81610b7a6020938361071e565b810103126100ca57519182168203610b9457508038610b5c565b80fd5b3d9150610b6d565b90604051916060830183811067ffffffffffffffff82111761070857604052600283526040366020850137610bd3836107f9565b6001600160a01b039182169052610be98361081c565b911690529056fea26469706673582212205e0b13119e8e65c2eeb5495d71ca9b47f9a06c9ddfb6f32a411080a3ee08aa0264736f6c63430008140033",
  "linkReferences": {},
  "deployedLinkReferences": {}
}