{
  "_format": "hh-sol-artifact-1",
  "contractName": "DexRouter",
  "sourceName": "contracts/DexRouter.sol",
  "abi": [
    {
      "inputs": [
        {
          "internalType": "address",
          "name": "_partnerRegistry",
          "type": "address"
        }
      ],
      "stateMutability": "nonpayable",
      "type": "constructor"
    },
    {
      "inputs": [
        {
          "internalType": "address",
          "name": "owner",
          "type": "address"
        }
      ],
      "name": "OwnableInvalidOwner",
      "type": "error"
    },
    {
      "inputs": [
        {
          "internalType": "address",
          "name": "account",
          "type": "address"
        }
      ],
      "name": "OwnableUnauthorizedAccount",
      "type": "error"
    },
    {
      "inputs": [],
      "name": "ReentrancyGuardReentrantCall",
      "type": "error"
    },
    {
      "inputs": [
        {
          "internalType": "address",
          "name": "token",
          "type": "address"
        }
      ],
      "name": "SafeERC20FailedOperation",
      "type": "error"
    },
    {
      "anonymous": false,
      "inputs": [
        {
          "indexed": true,
          "internalType": "string",
          "name": "dexName",
          "type": "string"
        },
        {
          "indexed": true,
          "internalType": "address",
          "name": "adapter",
          "type": "address"
        }
      ],
      "name": "AdapterRegistered",
      "type": "event"
    },
    {
      "anonymous": false,
      "inputs": [
        {
          "indexed": true,
          "internalType": "string",
          "name": "dexName",
          "type": "string"
        }
      ],
      "name": "AdapterRemoved",
      "type": "event"
    },
    {
      "anonymous": false,
      "inputs": [
        {
          "indexed": true,
          "internalType": "address",
          "name": "previousOwner",
          "type": "address"
        },
        {
          "indexed": true,
          "internalType": "address",
          "name": "newOwner",
          "type": "address"
        }
      ],
      "name": "OwnershipTransferred",
      "type": "event"
    },
    {
      "anonymous": false,
      "inputs": [
        {
          "indexed": true,
          "internalType": "address",
          "name": "partner",
          "type": "address"
        },
        {
          "indexed": true,
          "internalType": "address",
          "name": "token",
          "type": "address"
        },
        {
          "indexed": false,
          "internalType": "uint256",
          "name": "amount",
          "type": "uint256"
        }
      ],
      "name": "PartnerFeesAccumulated",
      "type": "event"
    },
    {
      "anonymous": false,
      "inputs": [
        {
          "indexed": true,
          "internalType": "address",
          "name": "partner",
          "type": "address"
        },
        {
          "indexed": true,
          "internalType": "address",
          "name": "token",
          "type": "address"
        },
        {
          "indexed": false,
          "internalType": "uint256",
          "name": "amount",
          "type": "uint256"
        }
      ],
      "name": "PartnerFeesWithdrawn",
      "type": "event"
    },
    {
      "anonymous": false,
      "inputs": [
        {
          "indexed": true,
          "internalType": "address",
          "name": "token",
          "type": "address"
        },
        {
          "indexed": false,
          "internalType": "uint256",
          "name": "amount",
          "type": "uint256"
        },
        {
          "indexed": false,
          "internalType": "address",
          "name": "recipient",
          "type": "address"
        }
      ],
      "name": "ProtocolFeesWithdrawn",
      "type": "event"
    },
    {
      "anonymous": false,
      "inputs": [
        {
          "indexed": true,
          "internalType": "address",
          "name": "user",
          "type": "address"
        },
        {
          "indexed": true,
          "internalType": "address",
          "name": "tokenIn",
          "type": "address"
        },
        {
          "indexed": true,
          "internalType": "address",
          "name": "tokenOut",
          "type": "address"
        },
        {
          "indexed": false,
          "internalType": "uint256",
          "name": "amountIn",
          "type": "uint256"
        },
        {
          "indexed": false,
          "internalType": "uint256",
          "name": "amountOut",
          "type": "uint256"
        },
        {
          "indexed": false,
          "internalType": "string",
          "name": "dexUsed",
          "type": "string"
        },
        {
          "indexed": false,
          "internalType": "uint256",
          "name": "protocolFeeCollected",
          "type": "uint256"
        },
        {
          "indexed": false,
          "internalType": "uint256",
          "name": "partnerFeeCollected",
          "type": "uint256"
        },
        {
          "indexed": false,
          "internalType": "address",
          "name": "partner",
          "type": "address"
        }
      ],
      "name": "SwapExecuted",
      "type": "event"
    },
    {
      "inputs": [],
      "name": "BPS_DENOMINATOR",
      "outputs": [
        {
          "internalType": "uint256",
          "name": "",
          "type": "uint256"
        }
      ],
      "stateMutability": "view",
      "type": "function"
    },
    {
      "inputs": [],
      "name": "MAX_PARTNER_FEE_BPS",
      "outputs": [
        {
          "internalType": "uint256",
          "name": "",
          "type": "uint256"
        }
      ],
      "stateMutability": "view",
      "type": "function"
    },
    {
      "inputs": [],
      "name": "PROTOCOL_FEE_BPS",
      "outputs": [
        {
          "internalType": "uint256",
          "name": "",
          "type": "uint256"
        }
      ],
      "stateMutability": "view",
      "type": "function"
    },
    {
      "inputs": [],
      "name": "WAVAX",
      "outputs": [
        {
          "internalType": "address",
          "name": "",
          "type": "address"
        }
      ],
      "stateMutability": "view",
      "type": "function"
    },
    {
      "inputs": [
        {
          "internalType": "string",
          "name": "",
          "type": "string"
        }
      ],
      "name": "adapters",
      "outputs": [
        {
          "internalType": "contract IDexAdapter",
          "name": "",
          "type": "address"
        }
      ],
      "stateMutability": "view",
      "type": "function"
    },
    {
      "inputs": [
        {
          "internalType": "address",
          "name": "tokenIn",
          "type": "address"
        },
        {
          "internalType": "address",
          "name": "tokenOut",
          "type": "address"
        },
        {
          "internalType": "uint256",
          "name": "amountIn",
          "type": "uint256"
        }
      ],
      "name": "findBestRoute",
      "outputs": [
        {
          "internalType": "string",
          "name": "bestDexName",
          "type": "string"
        },
        {
          "internalType": "uint256",
          "name": "bestAmountOut",
          "type": "uint256"
        }
      ],
      "stateMutability": "view",
      "type": "function"
    },
    {
      "inputs": [
        {
          "internalType": "address",
          "name": "partner",
          "type": "address"
        },
        {
          "internalType": "address",
          "name": "token",
          "type": "address"
        }
      ],
      "name": "getPartnerAccumulatedFees",
      "outputs": [
        {
          "internalType": "uint256",
          "name": "",
          "type": "uint256"
        }
      ],
      "stateMutability": "view",
      "type": "function"
    },
    {
      "inputs": [
        {
          "internalType": "string",
          "name": "dexName",
          "type": "string"
        },
        {
          "internalType": "address",
          "name": "tokenIn",
          "type": "address"
        },
        {
          "internalType": "address",
          "name": "tokenOut",
          "type": "address"
        },
        {
          "internalType": "uint256",
          "name": "amountIn",
          "type": "uint256"
        }
      ],
      "name": "getQuote",
      "outputs": [
        {
          "internalType": "uint256",
          "name": "amountOut",
          "type": "uint256"
        }
      ],
      "stateMutability": "view",
      "type": "function"
    },
    {
      "inputs": [],
      "name": "owner",
      "outputs": [
        {
          "internalType": "address",
          "name": "",
          "type": "address"
        }
      ],
      "stateMutability": "view",
      "type": "function"
    },
    {
      "inputs": [
        {
          "internalType": "address",
          "name": "",
          "type": "address"
        },
        {
          "internalType": "address",
          "name": "",
          "type": "address"
        }
      ],
      "name": "partnerAccumulatedFees",
      "outputs": [
        {
          "internalType": "uint256",
          "name": "",
          "type": "uint256"
        }
      ],
      "stateMutability": "view",
      "type": "function"
    },
    {
      "inputs": [],
      "name": "partnerRegistry",
      "outputs": [
        {
          "internalType": "contract PartnerRegistry",
          "name": "",
          "type": "address"
        }
      ],
      "stateMutability": "view",
      "type": "function"
    },
    {
      "inputs": [
        {
          "internalType": "string",
          "name": "dexName",
          "type": "string"
        },
        {
          "internalType": "contract IDexAdapter",
          "name": "adapter",
          "type": "address"
        }
      ],
      "name": "registerAdapter",
      "outputs": [],
      "stateMutability": "nonpayable",
      "type": "function"
    },
    {
      "inputs": [
        {
          "internalType": "uint256",
          "name": "",
          "type": "uint256"
        }
      ],
      "name": "registeredDexes",
      "outputs": [
        {
          "internalType": "string",
          "name": "",
          "type": "string"
        }
      ],
      "stateMutability": "view",
      "type": "function"
    },
    {
      "inputs": [
        {
          "internalType": "string",
          "name": "dexName",
          "type": "string"
        }
      ],
      "name": "removeAdapter",
      "outputs": [],
      "stateMutability": "nonpayable",
      "type": "function"
    },
    {
      "inputs": [],
      "name": "renounceOwnership",
      "outputs": [],
      "stateMutability": "nonpayable",
      "type": "function"
    },
    {
      "inputs": [
        {
          "internalType": "address",
          "name": "_partnerRegistry",
          "type": "address"
        }
      ],
      "name": "setPartnerRegistry",
      "outputs": [],
      "stateMutability": "nonpayable",
      "type": "function"
    },
    {
      "inputs": [
        {
          "internalType": "address",
          "name": "tokenOut",
          "type": "address"
        },
        {
          "internalType": "uint256",
          "name": "minAmountOut",
          "type": "uint256"
        },
        {
          "internalType": "address",
          "name": "recipient",
          "type": "address"
        }
      ],
      "name": "swapAVAXForTokens",
      "outputs": [
        {
          "internalType": "uint256",
          "name": "amountOut",
          "type": "uint256"
        }
      ],
      "stateMutability": "payable",
      "type": "function"
    },
    {
      "inputs": [
        {
          "internalType": "address",
          "name": "tokenOut",
          "type": "address"
        },
        {
          "internalType": "uint256",
          "name": "minAmountOut",
          "type": "uint256"
        },
        {
          "internalType": "address",
          "name": "recipient",
          "type": "address"
        },
        {
          "internalType": "string",
          "name": "partnerId",
          "type": "string"
        },
        {
          "internalType": "uint256",
          "name": "partnerFeeBps",
          "type": "uint256"
        }
      ],
      "name": "swapAVAXForTokensWithPartner",
      "outputs": [
        {
          "internalType": "uint256",
          "name": "amountOut",
          "type": "uint256"
        }
      ],
      "stateMutability": "payable",
      "type": "function"
    },
    {
      "inputs": [
        {
          "internalType": "address",
          "name": "tokenIn",
          "type": "address"
        },
        {
          "internalType": "address",
          "name": "tokenOut",
          "type": "address"
        },
        {
          "internalType": "uint256",
          "name": "amountIn",
          "type": "uint256"
        },
        {
          "internalType": "uint256",
          "name": "minAmountOut",
          "type": "uint256"
        },
        {
          "internalType": "address",
          "name": "recipient",
          "type": "address"
        }
      ],
      "name": "swapBestRoute",
      "outputs": [
        {
          "internalType": "uint256",
          "name": "amountOut",
          "type": "uint256"
        }
      ],
      "stateMutability": "nonpayable",
      "type": "function"
    },
    {
      "inputs": [
        {
          "internalType": "address",
          "name": "tokenIn",
          "type": "address"
        },
        {
          "internalType": "address",
          "name": "tokenOut",
          "type": "address"
        },
        {
          "internalType": "uint256",
          "name": "amountIn",
          "type": "uint256"
        },
        {
          "internalType": "uint256",
          "name": "minAmountOut",
          "type": "uint256"
        },
        {
          "internalType": "address",
          "name": "recipient",
          "type": "address"
        },
        {
          "internalType": "string",
          "name": "partnerId",
          "type": "string"
        },
        {
          "internalType": "uint256",
          "name": "partnerFeeBps",
          "type": "uint256"
        }
      ],
      "name": "swapBestRouteWithPartner",
      "outputs": [
        {
          "internalType": "uint256",
          "name": "amountOut",
          "type": "uint256"
        }
      ],
      "stateMutability": "nonpayable",
      "type": "function"
    },
    {
      "inputs": [
        {
          "internalType": "string",
          "name": "dexName",
          "type": "string"
        },
        {
          "internalType": "address",
          "name": "tokenIn",
          "type": "address"
        },
        {
          "internalType": "address",
          "name": "tokenOut",
          "type": "address"
        },
        {
          "internalType": "uint256",
          "name": "amountIn",
          "type": "uint256"
        },
        {
          "internalType": "uint256",
          "name": "minAmountOut",
          "type": "uint256"
        },
        {
          "internalType": "address",
          "name": "recipient",
          "type": "address"
        }
      ],
      "name": "swapOnDex",
      "outputs": [
        {
          "internalType": "uint256",
          "name": "amountOut",
          "type": "uint256"
        }
      ],
      "stateMutability": "nonpayable",
      "type": "function"
    },
    {
      "inputs": [
        {
          "internalType": "string",
          "name": "dexName",
          "type": "string"
        },
        {
          "internalType": "address",
          "name": "tokenIn",
          "type": "address"
        },
        {
          "internalType": "address",
          "name": "tokenOut",
          "type": "address"
        },
        {
          "internalType": "uint256",
          "name": "amountIn",
          "type": "uint256"
        },
        {
          "internalType": "uint256",
          "name": "minAmountOut",
          "type": "uint256"
        },
        {
          "internalType": "address",
          "name": "recipient",
          "type": "address"
        },
        {
          "internalType": "string",
          "name": "partnerId",
          "type": "string"
        },
        {
          "internalType": "uint256",
          "name": "partnerFeeBps",
          "type": "uint256"
        }
      ],
      "name": "swapOnDexWithPartner",
      "outputs": [
        {
          "internalType": "uint256",
          "name": "amountOut",
          "type": "uint256"
        }
      ],
      "stateMutability": "nonpayable",
      "type": "function"
    },
    {
      "inputs": [
        {
          "internalType": "address",
          "name": "tokenIn",
          "type": "address"
        },
        {
          "internalType": "uint256",
          "name": "amountIn",
          "type": "uint256"
        },
        {
          "internalType": "uint256",
          "name": "minAmountOut",
          "type": "uint256"
        },
        {
          "internalType": "address",
          "name": "recipient",
          "type": "address"
        }
      ],
      "name": "swapTokensForAVAX",
      "outputs": [
        {
          "internalType": "uint256",
          "name": "amountOut",
          "type": "uint256"
        }
      ],
      "stateMutability": "nonpayable",
      "type": "function"
    },
    {
      "inputs": [
        {
          "internalType": "address",
          "name": "tokenIn",
          "type": "address"
        },
        {
          "internalType": "uint256",
          "name": "amountIn",
          "type": "uint256"
        },
        {
          "internalType": "uint256",
          "name": "minAmountOut",
          "type": "uint256"
        },
        {
          "internalType": "address",
          "name": "recipient",
          "type": "address"
        },
        {
          "internalType": "string",
          "name": "partnerId",
          "type": "string"
        },
        {
          "internalType": "uint256",
          "name": "partnerFeeBps",
          "type": "uint256"
        }
      ],
      "name": "swapTokensForAVAXWithPartner",
      "outputs": [
        {
          "internalType": "uint256",
          "name": "amountOut",
          "type": "uint256"
        }
      ],
      "stateMutability": "nonpayable",
      "type": "function"
    },
    {
      "inputs": [
        {
          "internalType": "address",
          "name": "newOwner",
          "type": "address"
        }
      ],
      "name": "transferOwnership",
      "outputs": [],
      "stateMutability": "nonpayable",
      "type": "function"
    },
    {
      "inputs": [
        {
          "internalType": "address",
          "name": "token",
          "type": "address"
        },
        {
          "internalType": "uint256",
          "name": "amount",
          "type": "uint256"
        }
      ],
      "name": "withdrawPartnerFees",
      "outputs": [],
      "stateMutability": "nonpayable",
      "type": "function"
    },
    {
      "inputs": [
        {
          "internalType": "address",
          "name": "token",
          "type": "address"
        },
        {
          "internalType": "uint256",
          "name": "amount",
          "type": "uint256"
        },
        {
          "internalType": "address",
          "name": "recipient",
          "type": "address"
        }
      ],
      "name": "withdrawProtocolFees",
      "outputs": [],
      "stateMutability": "nonpayable",
      "type": "function"
    },
    {
      "stateMutability": "payable",
      "type": "receive"
    }
  ],
  "bytecode": "0x608034620000d457601f6200393238819003918201601f19168301916001600160401b03831184841017620000d957808492602094604052833981010312620000d457516001600160a01b039081811690819003620000d45760016000553315620000bb5760018054336001600160a01b03198083168217909355604051949091167f8be0079c531659141344cd1fd0a4f28419497f9722a3daafe3b4186f6b6457e0600080a360025416176002556138429081620000f08239f35b604051631e4fbdf760e01b815260006004820152602490fd5b600080fd5b634e487b7160e01b600052604160045260246000fdfe608080604052600436101561006d575b50361561001b57600080fd5b6000805160206137ed833981519152330361003257005b60405162461bcd60e51b815260206004820152601360248201527213db9b1e4815d05590560818dbdb9d1c9858dd606a1b6044820152606490fd5b600090813560e01c908163013380fa14612d45575080630d12394b14612ce3578063361c85f014612a1057806338712e80146129e75780633ef11fd7146127f2578063415a720e1461234557806341ee2985146123295780636abb443c146122de5780636ac4099114611ec9578063715018a614611e6c57806373b295c214611e4357806379be938d14611be25780638b97f58a1461199d5780638c3e9f46146119115780638da5cb5b146118e85780639db27564146115e1578063b02e61a5146114b8578063b84f5d1e1461143f578063be37822814611423578063cad7b4ca14610ea5578063e1a4521814610e88578063e88cd2dd14610e11578063f19095bb146108ff578063f2fde38b14610874578063f5dd7c9f14610782578063f7e255901461054c5763f9cceb190361000f573461045b57608036600319011261045b576101b8612d8d565b60243590604435906101c8612e00565b916101d1613294565b604051936345cbfac560e11b855260018060a01b0391828416918260048801526000805160206137ed83398151915293846024890152816044890152600088606481305afa9586156104665760009889976104cb575b506005830293838504600514841517156104ab576127108095049461024c868661316c565b916000878211156104c157506005810291818304600514821517156104ab5761027692049061316c565b80985b10610472576103429760006020946102d9868a8f6102998b30338561337a565b6102c88860405193878451958781818801986102b681838c612e77565b81016003815203019020541690613508565b604051938492839251928391612e77565b6003908201908152030190205460405163d5bcb9b560e01b81526001600160a01b0390961660048701526000805160206137ed833981519152602487015260448601949094526064850192909252306084850152929889939190921691839190829060a4820190565b03925af1968715610466578895600098610424575b508493929161038c6000805160206137cd833981519152926040519283528a602084015260c0604084015260c0830190612e9a565b92606082015260006080820152600060a08201528030930390a4803b15610420578190602460405180948193632e1a7d4d60e01b83528860048401525af18015610415576103fd575b50826103f4818080602097876001975af16103ee613264565b50613769565b55604051908152f35b6104078491612ebf565b61041157386103d5565b8280fd5b6040513d86823e3d90fd5b5080fd5b919293949550966020823d60201161045e575b8161044460209383612f03565b8101031261045b5750519587949392919084610357565b80fd5b3d9150610437565b6040513d6000823e3d90fd5b60405162461bcd60e51b81526020600482015260116024820152700a6d8d2e0e0c2ceca40e8dede40d0d2ced607b1b6044820152606490fd5b634e487b7160e01b600052601160045260246000fd5b9150508098610279565b9096503d808a833e6104dd8183612f03565b8101986040828b031261045b5781516001600160401b0381116104205782018a601f820112156104205780519161051383612f24565b9b6105216040519d8e612f03565b838d526020848401011161045b5750602092916105439184808e019101612e77565b01519538610227565b503461045b5760c036600319011261045b576004356001600160401b0381116104205761057d903690600401612e4a565b90610586612da8565b9061058f612dd4565b6084359161059b612dea565b946105a4613294565b6105cf6040518284823760038184019081528190036020019020546001600160a01b0316151561311d565b6005606435029260643584046005146064351517156104ab576127106105f981860460643561316c565b88600083880489111561077a57505060058702878104600514881517156104ab5789978361062892049061316c565b61063f60643530336001600160a01b038d1661337a565b6040518587823760038682019081528190036020019020546106709083906001600160a01b03908116908c16613508565b60405185878237600386820190815281900360200190205460405163d5bcb9b560e01b81529a6001600160a01b03909116928b9283926106b892909190888e60048701613347565b03815a602094600091f197881561046657600098610745575b509260019694926000805160206137cd8339815191529260209a979561071160405194859460643586528d8f87015260c0604087015260c08601916132d6565b9504606083015260006080830181905260a08084019190915289901b8990039081169681169516930390a455604051908152f35b90976020823d602011610772575b8161076060209383612f03565b8101031261045b5750519660016106d1565b3d9150610753565b909750610628565b503461045b57604036600319011261045b5761079c612d8d565b6024356107a7613294565b338352602060058152604084209260018060a01b0316928360005281528160406000205410610830577fec479130233ab589d4288144e27d6259c6139678f51abd65998903d82fc1ebb9903385526005815260408520846000528152604060002061081384825461316c565b90556108208333866136f5565b6040519283523392a36001815580f35b6064906040519062461bcd60e51b82526004820152601d60248201527f496e73756666696369656e7420616363756d756c6174656420666565730000006044820152fd5b503461045b57602036600319011261045b5761088e612d8d565b610896613093565b6001600160a01b039081169081156108e657600154826001600160601b0360a01b821617600155167f8be0079c531659141344cd1fd0a4f28419497f9722a3daafe3b4186f6b6457e0600080a380f35b604051631e4fbdf760e01b815260048101849052602490fd5b5060a036600319011261045b57610914612d8d565b61091c612dd4565b6001600160401b0391606435838111610e0d5761093d903690600401612e4a565b9091610947613294565b341592610954841561372e565b821580159390610df95760025460405163031b646360e51b81526020600482018190529093909284926001600160a01b031691839182916109999160248401916132d6565b03915afa908115610dee578791610dc0575b50915b8281610dae575b50610d9b575b608435916109cc60328411156132f7565b6040516345cbfac560e11b81526000805160206137ed83398151915260048201526001600160a01b038316602482015234604482015292600084606481305afa968715610466576000948598610d1f575b5050600534029434860460051417156104ab5760006001600160a01b03831615610d195750612710610a4f8234613251565b04905b61271090610a628383890461333a565b610a6c813461316c565b916000602435928311600014610d0f575060050190816005116104ab5783610a97610a9e9383613251565b049061316c565b80995b10610472576040516323b872dd60e01b602082810191909152336024830152306044830152346064830152610bbe9a90928a92909190610af790610af281608481015b03601f198101835282612f03565b613643565b85151580610cfd575b610c89575b6000610b518a610b4185604051898451940193610b23818387612e77565b60039082019081528190038a019020546001600160a01b03166133cb565b6040519182918d51928391612e77565b6003908201908152819003860190205460405163d5bcb9b560e01b81526000805160206137ed83398151915260048201526001600160a01b038b81166024830152604482019590955260648101939093529383166084830152909b8c9390921691839190829060a4820190565b03925af197881561046657600098610c4c575b5093876000805160206137ed8339815191529460209a97946000805160206137cd8339815191529460019a98610c1f604051968796348852602088015260c0604088015260c0870190612e9a565b97046060850152608084015260a08a811b8b9003918216908401529081169616930390a455604051908152f35b90939291976020823d602011610c81575b81610c6a60209383612f03565b8101031261045b5750519691929091906001610bd1565b3d9150610c5d565b60018060a01b0387166000526005845260406000206000805160206137ed83398151915260005284526040600020610cc287825461333a565b90556040518681526000805160206137ed833981519152906001600160a01b038916906000805160206137ad833981519152908790a3610b05565b506001600160a01b0387161515610b00565b9150508099610aa1565b90610a52565b919750933d8082843e610d328184612f03565b82019460408387031261042057825190811161042057820185601f8201121561042057805191610d6183612f24565b96610d6f6040519889612f03565b8388526020848401011161045b575060209291610d9191848089019101612e77565b0151953880610a1d565b6001546001600160a01b031691506109bb565b6001600160a01b0316159050386109b5565b610de1915060203d8111610de7575b610dd98183612f03565b8101906132b7565b386109ab565b503d610dcf565b6040513d89823e3d90fd5b50506001546001600160a01b0316916109ae565b8480fd5b503461045b57602036600319011261045b5760043560045481101561042057610e3990612f76565b919091610e7457604051610e7090610e5c81610e558187612ffd565b0382612f03565b604051918291602083526020830190612e9a565b0390f35b634e487b7160e01b81526004819052602490fd5b503461045b578060031936011261045b5760206040516127108152f35b503461045b5760c036600319011261045b57610ebf612d8d565b610ec7612e00565b906084356001600160401b03811161141f57610ee7903690600401612e4a565b9290610ef1613294565b83158015949061140b5760025460405163031b646360e51b81526020600482018190529093909284926001600160a01b03169183918291610f369160248401916132d6565b03915afa9081156113bd5785916113ed575b50925b83816113db575b506113c8575b610f67603260a43511156132f7565b6040516345cbfac560e11b81526001600160a01b03831660048201526000805160206137ed8339815191526024808301919091523560448201528481606481305afa9283156113bd5785918694611326575b50600560243502906024358204600514602435151715611312576001600160a01b0386161561130c57612710610ff360a435602435613251565b045b6127106110048282860461333a565b966110118860243561316c565b97604435908111156113035760a435600501806005116112ef579083610a9761103a9383613251565b80915b10610472576111299760209161106060243530336001600160a01b038a1661337a565b841515806112dd575b611280575b6110bd6040516110ad848b5192878d019361108a818387612e77565b600390820190815281900388019020546001600160a01b03908116908b16613508565b6040519182918b51928391612e77565b6003908201908152819003840190205460405163d5bcb9b560e01b81526001600160a01b0388811660048301526000805160206137ed83398151915260248301526044820194909452606481019290925230608483015290998a929091169082908d90829060a4820190565b03925af1968715611275578997611225575b50966000805160206137cd83398151915292916000805160206137ed8339815191529697986111836040519760243589528b60208a015260c060408a015260c0890190612e9a565b9504606087015260808601526001600160a01b0390811660a08601521692309281900390a46000805160206137ed8339815191523b1561041157604051632e1a7d4d60e01b8152600481018390528381602481836000805160206137ed8339815191525af1801561041557600192602095928592611210575b508280806103f49481945af16103ee613264565b9261121e6103f49394612ebf565b92916111fc565b9291959650966020833d60201161126d575b8161124460209383612f03565b81010312611269579151919691959490916000805160206137cd83398151915261113b565b8880fd5b3d9150611237565b6040513d8b823e3d90fd5b6001600160a01b038b81168d52600584526040808e209188168e529084528c2080546112ad90879061333a565b90556040518581526001600160a01b0387811691908d16906000805160206137ad833981519152908690a361106e565b506001600160a01b038b161515611069565b634e487b7160e01b8c52601160045260248cfd5b5089809161103d565b86610ff5565b634e487b7160e01b87526011600452602487fd5b915092503d908186823e61133a8282612f03565b60408183810103126113b9578051906001600160401b0382116113b557828101601f8383010112156113b557818101519161137483612f24565b936113826040519586612f03565b83855282016020848385010101116113b1576020926113a8918480870191850101612e77565b01519238610fb9565b8780fd5b8680fd5b8580fd5b6040513d87823e3d90fd5b6001546001600160a01b03169250610f58565b6001600160a01b031615905038610f52565b611405915060203d8111610de757610dd98183612f03565b38610f48565b50506001546001600160a01b031692610f4b565b8380fd5b503461045b578060031936011261045b57602060405160058152f35b503461045b57602036600319011261045b57600435906001600160401b03821161045b573660238301121561045b57602061148236600485013560248601612f3f565b816114966040519283815193849201612e77565b600390820190815281900382019020546040516001600160a01b039091168152f35b503461045b57608036600319011261045b576004356001600160401b03811161042057906114ed611589923690600401612e4a565b6114f8939193612da8565b611500612dd4565b604051958387948286378085016003815260018060a01b03926115328460209b8c809a8196030190205416151561311d565b82604051938492833760039082019081520301902054604051632550332960e11b81526001600160a01b03948516600482015292909316602483015260648035604484015291948593919091169183918291820190565b03915afa9182156115d55780926115a5575b5050604051908152f35b9091508282813d83116115ce575b6115bd8183612f03565b8101031261045b575051388061159b565b503d6115b3565b604051903d90823e3d90fd5b506115eb36612e16565b90916115f5613294565b341590611602821561372e565b6040516345cbfac560e11b81526000805160206137ed83398151915260048201526001600160a01b0382166024820152346044820152908582606481305afa9485156118dd578692879661185c575b506005340293348504600514171561131257612710906116738286043461316c565b9082860481111561185357600581028181046005148215171561183f57908361169d92049061316c565b80975b10610472576040516323b872dd60e01b60208281019190915233602483015230604483015234606483015261177198909288929091906116e790610af28160848101610ae4565b8a6117046040516110ad858b5192898d0193610b23818387612e77565b6003908201908152819003860190205460405163d5bcb9b560e01b81526000805160206137ed83398151915260048201526001600160a01b03898116602483015260448201959095526064810193909352938316608483015290998a9390921691839190829060a4820190565b03925af1958615610dee5787966117fd575b50926000805160206137cd8339815191526117ce600196946000805160206137ed8339815191529460209a976040519384933485528c8e86015260c0604086015260c0850190612e9a565b950460608301528760808301528760a0830152888060a01b031695888060a01b0316930390a455604051908152f35b9095506020813d602011611837575b8161181960209383612f03565b810103126113b55751946000805160206137cd833981519152611783565b3d915061180c565b634e487b7160e01b8a52601160045260248afd5b508780976116a0565b925094503d8087843e61186f8184612f03565b8201916040818403126113b55780516001600160401b0381116113b15781019083601f830112156113b1578151916118a683612f24565b946118b46040519687612f03565b83865260208483010111611269576020926118d491848088019101612e77565b01519438611651565b6040513d88823e3d90fd5b503461045b578060031936011261045b576001546040516001600160a01b039091168152602090f35b503461045b57602036600319011261045b5761192b612d8d565b611933613093565b6001600160a01b03168015611958576001600160601b0360a01b600254161760025580f35b60405162461bcd60e51b815260206004820152601860248201527f496e76616c6964207265676973747279206164647265737300000000000000006044820152606490fd5b503461045b57606036600319011261045b576119b7612d8d565b6119bf612da8565b91604435600454908115611ba7578294606094845b848110611a415787878115611a05576119fb91604051928392604084526040840190612e9a565b9060208301520390f35b60405162461bcd60e51b8152602060048201526014602482015273139bc81d985b1a59081c9bdd5d1948199bdd5b9960621b6044820152606490fd5b611a4a81612f76565b50866040519181908054611a5d81612fc3565b91600191808316908115611b8e5750600114611b56575b505060038252508290036020908101909220546001600160a01b031680611aa7575b505050611aa29061315d565b6119d4565b604051632550332960e11b8482019081526001600160a01b0380881660248401528816604483015260648201899052839291611ae68160848101610ae4565b51915afa611af2613264565b9080611b4b575b611b05575b8790611a96565b81818051810103126113b1570151888111611b21575b80611afe565b97509550611aa2610e55611b44611b3789612f76565b5060405192838092612ffd565b9690611b1b565b508181511015611af9565b84526020808520929350918491905b848310611b7a57505050508201388080611a74565b8054878401528c9550918301918101611b65565b60ff191687525050508015150283019050388080611a74565b60405162461bcd60e51b8152602060048201526013602482015272139bc8111156195cc81c9959da5cdd195c9959606a1b6044820152606490fd5b503461045b57604036600319011261045b576001600160401b0360043581811161041157611c14903690600401612e4a565b6001600160a01b03602480358281169593949392908690036113b557611c38613093565b604051908585833781868101600381526020938491030190205416611e01578515611dbf576040518585823781818781016003815203019020866001600160601b0360a01b8254161790556004549168010000000000000000831015611d9a57611ca9600193848101600455612f76565b949094611dac578611611d9a57508490611ccd82611cc78654612fc3565b866130d6565b8790601f8311600114611d38575087929082611d2d575b501b906000198560031b1c19161790555b81604051928392833781018481520390207fb40573981f6088c2c6d55252227055ccde57ef96fdc623d5665bee381adf6c098380a380f35b850135925038611ce4565b91601f198116858a52838a20938a905b86838310611d805750505010611d66575b505083811b019055611cf5565b840135600019600387901b60f8161c191690553880611d59565b898601358755909501949384019389935090810190611d48565b634e487b7160e01b8852604160045287fd5b50634e487b7160e01b8852600488905287fd5b60176064926040519262461bcd60e51b845260048401528201527f496e76616c6964206164617074657220616464726573730000000000000000006044820152fd5b601a6064926040519262461bcd60e51b845260048401528201527f4164617074657220616c726561647920726567697374657265640000000000006044820152fd5b503461045b578060031936011261045b5760206040516000805160206137ed8339815191528152f35b503461045b578060031936011261045b57611e85613093565b600180546001600160a01b0319811690915581906001600160a01b03167f8be0079c531659141344cd1fd0a4f28419497f9722a3daafe3b4186f6b6457e08280a380f35b503461045b5761010036600319011261045b576001600160401b039060043582811161042057611efd903690600401612e4a565b9290611f07612da8565b90611f10612dd4565b90611f19612dea565b9360c4359081116113b957611f32903690600401612e4a565b9690611f3c613294565b8715801598906122ca5760025460405163031b646360e51b81526020600482018190529093909284926001600160a01b03169183918291611f819160248401916132d6565b03915afa908115610dee5787916122ac575b50965b878161229a575b50612287575b611fce6040518284823760038184019081528190036020019020546001600160a01b0316151561311d565b611fdd603260e43511156132f7565b60643560056064350204600514606435151715612273576001600160a01b0387161561226c5761271061201460e435606435613251565b04925b61202a846127106005606435020461333a565b976120378960643561316c565b9860843511156122605760e43560050160051161224c5786979861207461271061206b60e49a999a35600501608435613251565b0460843561316c565b61208b60643530336001600160a01b038d1661337a565b8615158061223a575b6121d9575b6040518587823760038682019081528190036020019020546120ca9083906001600160a01b03908116908c16613508565b60405185878237600386820190815281900360200190205460405163d5bcb9b560e01b81529a6001600160a01b03909116928b92839261211292909190888e60048701613347565b03818c5a94602095f19788156112755789986121a4575b509260019694926000805160206137cd8339815191529260209a979561216960405194859460643586528d8f87015260c0604087015260c08601916132d6565b612710606435600502046060850152608084019690965260a08a811b8b9003918216908401529081169681169516930390a455604051908152f35b9097506020813d6020116121d1575b816121c060209383612f03565b810103126112695751966001612129565b3d91506121b3565b6001600160a01b038381168c52600560209081526040808e20928c168e529190528b20805461220990899061333a565b90556040518781526001600160a01b038a811691908516906000805160206137ad83398151915290602090a3612099565b506001600160a01b0383161515612094565b634e487b7160e01b88526011600452602488fd5b87988798979697612074565b8592612017565b634e487b7160e01b86526011600452602486fd5b6001546001600160a01b03169650611fa3565b6001600160a01b031615905038611f9d565b6122c4915060203d8111610de757610dd98183612f03565b38611f93565b50506001546001600160a01b031696611f96565b503461045b57604036600319011261045b5760406020916122fd612d8d565b612305612da8565b6001600160a01b039182168352600585528383209116825283522054604051908152f35b503461045b578060031936011261045b57602060405160328152f35b503461045b5760e036600319011261045b5761235f612d8d565b612367612da8565b90612370612dbe565b916001600160401b039060a4358281116113b957612392903690600401612e4a565b9061239b613294565b8115801592906127de5760025460405163031b646360e51b81526020600482018190529093909284926001600160a01b031691839182916123e09160248401916132d6565b03915afa908115610dee5787916127c0575b50905b81816127ae575b5061279c575b60c4359161241360328411156132f7565b6040516345cbfac560e11b81526001600160a01b038681166004830152821660248201526044803590820152918783606481305afa9485156127915788938996612715575b5050600560443502936044358504600514604435151715612701576001600160a01b038216156126fa5761271061249182604435613251565b04905b612710906124a48383890461333a565b6124b08160443561316c565b91606435918211156126f057600501806005116126dc579083610a976124d69383613251565b80985b106104725789976124f760443530336001600160a01b038e1661337a565b831515806126ca575b612669575b604051875190602089019161251b818385612e77565b60039082019081528190036020019020546125459084906001600160a01b03908116908e16613508565b60405180918951809261255792612e77565b8101906003825280600160a01b60019003920360200190205416918a6040519c8d93849363d5bcb9b560e01b85528a600486019461259495613347565b03818d5a94602095f198891561265e578a9961261d575b5060019795936000805160206137cd8339815191529360209b9896938b936125ed6040519687966044358852602088015260c0604088015260c0870190612e9a565b97046060850152608084015260a08a811b8b9003918216908401529081169681169516930390a455604051908152f35b9093929198506020813d602011612656575b8161263c60209383612f03565b81010312612652575197919290919060016125ab565b8980fd5b3d915061262f565b6040513d8c823e3d90fd5b6001600160a01b038581168d52600560209081526040808f20928d168f529190528c20805461269990869061333a565b90556040518481526001600160a01b038b811691908716906000805160206137ad83398151915290602090a3612505565b506001600160a01b0385161515612500565b634e487b7160e01b8d52601160045260248dfd5b50508a80986124d9565b8890612494565b634e487b7160e01b89526011600452602489fd5b91955092503d8089833e6127298183612f03565b8101926040828503126112695781519081116112695781019083601f830112156112695781519161275983612f24565b946127676040519687612f03565b838652602084830101116126525760209261278791848088019101612e77565b0151933880612458565b6040513d8a823e3d90fd5b506001546001600160a01b0316612402565b6001600160a01b0316159050386123fc565b6127d8915060203d8111610de757610dd98183612f03565b386123f2565b50506001546001600160a01b0316906123f5565b503461045b57602080600319360112610420576004356001600160401b03811161041157612824903690600401612e4a565b9061282d613093565b61285760405183838237600381850190815281900385019020546001600160a01b0316151561311d565b60405182828237838184810160038152030190206001600160601b0360a01b8154169055835b600454808210156129dd57610e55612897611b3784612f76565b8581519101206128a8368686612f3f565b868151910120146128c257506128bd9061315d565b61287d565b929391926000199190828101908111611312576128e16128e891612f76565b5091612f76565b6129c957906128f691613179565b60045480156129b557019061290a82612f76565b6129a157908161291b879354612fc3565b80612961575b505050506004555b81604051928392833781018381520390207fb00061f7cc154fc23eb34671ab724fc7eb7b806abae871abae8f1eafce9721358280a280f35b83601f80831160011461297e575050509050555b83388080612921565b839294829461299a93528420940160051c8401600185016130bf565b5555612975565b634e487b7160e01b86526004869052602486fd5b634e487b7160e01b86526031600452602486fd5b634e487b7160e01b87526004879052602487fd5b5050909150612929565b503461045b578060031936011261045b576002546040516001600160a01b039091168152602090f35b503461045b5760a036600319011261045b57612a2a612d8d565b612a32612da8565b90606435612a3e612dbe565b90612a47613294565b6040516345cbfac560e11b81526001600160a01b0384811660048301528516602482015260448035908201528581606481305afa9485156118dd5786918796612c62575b5060056044350292604435840460051460443515171561224c5761271090612ab782860460443561316c565b90828604811115612c59576005810281810460051482151715612c45579083612ae192049061316c565b80985b1061047257602090612b0360443530336001600160a01b038c1661337a565b612b52604051612b4283885192868a0193612b1f818387612e77565b600390820190815281900387019020546001600160a01b03908116908d16613508565b6040519182918851928391612e77565b81019060038252838160018060a01b0393030190205416848b8a612b8d8b6040519e8f978896879563d5bcb9b560e01b875260048701613347565b03925af1968715612791578897612c0f575b50612bde602098959360019795936000805160206137cd8339815191529360405193849360443585528c8e86015260c0604086015260c0850190612e9a565b950460608301526080820188905260a080830189905289901b8990039081169681169516930390a455604051908152f35b9096506020813d602011612c3d575b81612c2b60209383612f03565b810103126113b1575195612bde612b9f565b3d9150612c1e565b634e487b7160e01b8b52601160045260248bfd5b50888098612ae4565b915094503d8087833e612c758183612f03565b8101906040818303126113b55780516001600160401b0381116113b15781019082601f830112156113b157815191612cac83612f24565b93612cba6040519586612f03565b8385526020848301011161126957602092612cda91848087019101612e77565b01519438612a8b565b503461045b5760407f66e1599cb4e6f8b24e2216b3ba87495e0bb4b22a948c322997a50b692ebe3232612d1536612e16565b9391612d1f613093565b6001600160a01b0390811694612d368382886136f5565b8351928352166020820152a280f35b905034610420576040366003190112610420576040602092612d65612d8d565b612d6d612da8565b6001600160a01b0391821683526005865283832091168252845220548152f35b600435906001600160a01b0382168203612da357565b600080fd5b602435906001600160a01b0382168203612da357565b608435906001600160a01b0382168203612da357565b604435906001600160a01b0382168203612da357565b60a435906001600160a01b0382168203612da357565b606435906001600160a01b0382168203612da357565b6060906003190112612da3576001600160a01b036004358181168103612da35791602435916044359081168103612da35790565b9181601f84011215612da3578235916001600160401b038311612da35760208381860195010111612da357565b60005b838110612e8a5750506000910152565b8181015183820152602001612e7a565b90602091612eb381518092818552858086019101612e77565b601f01601f1916010190565b6001600160401b038111612ed257604052565b634e487b7160e01b600052604160045260246000fd5b608081019081106001600160401b03821117612ed257604052565b90601f801991011681019081106001600160401b03821117612ed257604052565b6001600160401b038111612ed257601f01601f191660200190565b929192612f4b82612f24565b91612f596040519384612f03565b829481845281830111612da3578281602093846000960137010152565b600454811015612fad5760046000527f8a35acfbc15ff81a39ae7d344fd709f28e8600b4aa8c65c6b64bfe7fe36bd19b0190600090565b634e487b7160e01b600052603260045260246000fd5b90600182811c92168015612ff3575b6020831014612fdd57565b634e487b7160e01b600052602260045260246000fd5b91607f1691612fd2565b906000929180549161300e83612fc3565b9182825260019384811690816000146130705750600114613030575b50505050565b90919394506000526020928360002092846000945b83861061305c57505050500101903880808061302a565b805485870183015294019385908201613045565b9294505050602093945060ff191683830152151560051b0101903880808061302a565b6001546001600160a01b031633036130a757565b60405163118cdaa760e01b8152336004820152602490fd5b8181106130ca575050565b600081556001016130bf565b9190601f81116130e557505050565b613111926000526020600020906020601f840160051c83019310613113575b601f0160051c01906130bf565b565b9091508190613104565b1561312457565b60405162461bcd60e51b81526020600482015260116024820152701059185c1d195c881b9bdd08199bdd5b99607a1b6044820152606490fd5b60001981146104ab5760010190565b919082039182116104ab57565b9080821461324d5761318b8154612fc3565b906001600160401b038211612ed25781906131aa82611cc78654612fc3565b600090601f83116001146131e1576000926131d6575b50508160011b916000199060031b1c1916179055565b0154905038806131c0565b81526020808220858352818320935090601f1985169083905b82821061323457505090846001959493921061321b575b505050811b019055565b015460001960f88460031b161c19169055388080613211565b84958192958501548155600180910196019401906131fa565b5050565b818102929181159184041417156104ab57565b3d1561328f573d9061327582612f24565b916132836040519384612f03565b82523d6000602084013e565b606090565b6002600054146132a5576002600055565b604051633ee5aeb560e01b8152600490fd5b90816020910312612da357516001600160a01b0381168103612da35790565b908060209392818452848401376000828201840152601f01601f1916010190565b156132fe57565b60405162461bcd60e51b81526020600482015260146024820152730a0c2e4e8dccae440cccaca40e8dede40d0d2ced60631b6044820152606490fd5b919082018092116104ab57565b6001600160a01b039182168152918116602083015260408201929092526060810192909252909116608082015260a00190565b6040516323b872dd60e01b60208201526001600160a01b0392831660248201529290911660448301526064820192909252613111916133c682608481015b03601f198101845283612f03565b613699565b604051636eb1769f60e11b81523060048201526001600160a01b03821660248201819052926000805160206137ed8339815191529291602091908281604481885afa908115610466576000916134d9575b50906134279161333a565b60405163095ea7b360e01b8382018181526001600160a01b039590951660248301526044808301939093529181529390928290600090613468606488612f03565b86519082855af1903d60005190836134ba575b505050156134895750505050565b6134b193610af2926040519283015260248201526000604482015260448152610af281612ee8565b3880808061302a565b919250906134cf57503b15155b38808061347b565b60019150146134c7565b908382813d8311613501575b6134ef8183612f03565b8101031261045b57505161342761341c565b503d6134e5565b604051636eb1769f60e11b81523060048201526001600160a01b0383811660248301819052949083169391602091908281604481895afa90811561046657600091613614575b50906135599161333a565b60405163095ea7b360e01b8382018181526001600160a01b03959095166024830152604480830193909352918152949092829060009061359a606489612f03565b87519082885af1903d60005190836135f5575b505050156135bd575b5050505050565b6135eb946133c69260405192830152602482015260006044820152604481526135e581612ee8565b82613699565b38808080806135b6565b9192509061360a57503b15155b3880806135ad565b6001915014613602565b908382813d831161363c575b61362a8183612f03565b8101031261045b57505161355961354e565b503d613620565b602060008251826000805160206137ed833981519152940182855af115610466576000513d6136905750803b155b6136785750565b60249060405190635274afe760e01b82526004820152fd5b60011415613671565b906000602091828151910182855af115610466576000513d6136ec57506001600160a01b0381163b155b6136ca5750565b604051635274afe760e01b81526001600160a01b039091166004820152602490fd5b600114156136c3565b60405163a9059cbb60e01b60208201526001600160a01b0390921660248301526044820192909252613111916133c682606481016133b8565b1561373557565b60405162461bcd60e51b815260206004820152600c60248201526b139bc810559056081cd95b9d60a21b6044820152606490fd5b1561377057565b60405162461bcd60e51b815260206004820152601460248201527310559056081d1c985b9cd9995c8819985a5b195960621b6044820152606490fdfefbf447af33be64a7a0c24e2ff8583bdc62d25d0171e6c9ddb80d6c9a77b51796de1dacaf67c4a3c116c6af72b4ee15f8cef5504df8b97f48cf65642e7e554ba7000000000000000000000000b31f66aa3c1e785363f0875a1b74e27b85fd66c7a26469706673582212205c82952acba6a8fa4478ac448734751f8bcfa9e3455520e483b66ecc1e22e8b164736f6c63430008140033",
  "linkReferences": {},
  "deployedLinkReferences": {}
}