{
  "_format": "hh-sol-artifact-1",
  "contractName": "DexRouter",
  "sourceName": "contracts/DexRouter.sol",
  "abi": [
    {
      "inputs": [],
      "stateMutability": "nonpayable",
      "type": "constructor"
    },
    {
      "inputs": [
        {
          "internalType": "address",
          "name": "owner",
          "type": "address"
        }
      ],
      "name": "OwnableInvalidOwner",
      "type": "error"
    },
    {
      "inputs": [
        {
          "internalType": "address",
          "name": "account",
          "type": "address"
        }
      ],
      "name": "OwnableUnauthorizedAccount",
      "type": "error"
    },
    {
      "inputs": [],
      "name": "ReentrancyGuardReentrantCall",
      "type": "error"
    },
    {
      "inputs": [
        {
          "internalType": "address",
          "name": "token",
          "type": "address"
        }
      ],
      "name": "SafeERC20FailedOperation",
      "type": "error"
    },
    {
      "anonymous": false,
      "inputs": [
        {
          "indexed": true,
          "internalType": "string",
          "name": "dexName",
          "type": "string"
        },
        {
          "indexed": true,
          "internalType": "address",
          "name": "adapter",
          "type": "address"
        }
      ],
      "name": "AdapterRegistered",
      "type": "event"
    },
    {
      "anonymous": false,
      "inputs": [
        {
          "indexed": true,
          "internalType": "string",
          "name": "dexName",
          "type": "string"
        }
      ],
      "name": "AdapterRemoved",
      "type": "event"
    },
    {
      "anonymous": false,
      "inputs": [
        {
          "indexed": true,
          "internalType": "address",
          "name": "token",
          "type": "address"
        },
        {
          "indexed": false,
          "internalType": "uint256",
          "name": "amount",
          "type": "uint256"
        },
        {
          "indexed": false,
          "internalType": "address",
          "name": "recipient",
          "type": "address"
        }
      ],
      "name": "FeesWithdrawn",
      "type": "event"
    },
    {
      "anonymous": false,
      "inputs": [
        {
          "indexed": true,
          "internalType": "address",
          "name": "previousOwner",
          "type": "address"
        },
        {
          "indexed": true,
          "internalType": "address",
          "name": "newOwner",
          "type": "address"
        }
      ],
      "name": "OwnershipTransferred",
      "type": "event"
    },
    {
      "anonymous": false,
      "inputs": [
        {
          "indexed": true,
          "internalType": "address",
          "name": "user",
          "type": "address"
        },
        {
          "indexed": true,
          "internalType": "address",
          "name": "tokenIn",
          "type": "address"
        },
        {
          "indexed": true,
          "internalType": "address",
          "name": "tokenOut",
          "type": "address"
        },
        {
          "indexed": false,
          "internalType": "uint256",
          "name": "amountIn",
          "type": "uint256"
        },
        {
          "indexed": false,
          "internalType": "uint256",
          "name": "amountOut",
          "type": "uint256"
        },
        {
          "indexed": false,
          "internalType": "string",
          "name": "dexUsed",
          "type": "string"
        },
        {
          "indexed": false,
          "internalType": "uint256",
          "name": "feeCollected",
          "type": "uint256"
        }
      ],
      "name": "SwapExecuted",
      "type": "event"
    },
    {
      "inputs": [],
      "name": "BPS_DENOMINATOR",
      "outputs": [
        {
          "internalType": "uint256",
          "name": "",
          "type": "uint256"
        }
      ],
      "stateMutability": "view",
      "type": "function"
    },
    {
      "inputs": [],
      "name": "FEE_BPS",
      "outputs": [
        {
          "internalType": "uint256",
          "name": "",
          "type": "uint256"
        }
      ],
      "stateMutability": "view",
      "type": "function"
    },
    {
      "inputs": [
        {
          "internalType": "string",
          "name": "",
          "type": "string"
        }
      ],
      "name": "adapters",
      "outputs": [
        {
          "internalType": "contract IDexAdapter",
          "name": "",
          "type": "address"
        }
      ],
      "stateMutability": "view",
      "type": "function"
    },
    {
      "inputs": [
        {
          "internalType": "address",
          "name": "token",
          "type": "address"
        }
      ],
      "name": "emergencyWithdraw",
      "outputs": [],
      "stateMutability": "nonpayable",
      "type": "function"
    },
    {
      "inputs": [
        {
          "internalType": "address",
          "name": "tokenIn",
          "type": "address"
        },
        {
          "internalType": "address",
          "name": "tokenOut",
          "type": "address"
        },
        {
          "internalType": "uint256",
          "name": "amountIn",
          "type": "uint256"
        }
      ],
      "name": "findBestRoute",
      "outputs": [
        {
          "internalType": "string",
          "name": "bestDex",
          "type": "string"
        },
        {
          "internalType": "uint256",
          "name": "bestAmountOut",
          "type": "uint256"
        }
      ],
      "stateMutability": "view",
      "type": "function"
    },
    {
      "inputs": [
        {
          "internalType": "string",
          "name": "dexName",
          "type": "string"
        },
        {
          "internalType": "address",
          "name": "tokenIn",
          "type": "address"
        },
        {
          "internalType": "address",
          "name": "tokenOut",
          "type": "address"
        },
        {
          "internalType": "uint256",
          "name": "amountIn",
          "type": "uint256"
        }
      ],
      "name": "getQuote",
      "outputs": [
        {
          "internalType": "uint256",
          "name": "amountOut",
          "type": "uint256"
        }
      ],
      "stateMutability": "view",
      "type": "function"
    },
    {
      "inputs": [],
      "name": "getRegisteredDexes",
      "outputs": [
        {
          "internalType": "string[]",
          "name": "",
          "type": "string[]"
        }
      ],
      "stateMutability": "view",
      "type": "function"
    },
    {
      "inputs": [],
      "name": "owner",
      "outputs": [
        {
          "internalType": "address",
          "name": "",
          "type": "address"
        }
      ],
      "stateMutability": "view",
      "type": "function"
    },
    {
      "inputs": [
        {
          "internalType": "string",
          "name": "dexName",
          "type": "string"
        },
        {
          "internalType": "contract IDexAdapter",
          "name": "adapter",
          "type": "address"
        }
      ],
      "name": "registerAdapter",
      "outputs": [],
      "stateMutability": "nonpayable",
      "type": "function"
    },
    {
      "inputs": [
        {
          "internalType": "uint256",
          "name": "",
          "type": "uint256"
        }
      ],
      "name": "registeredDexes",
      "outputs": [
        {
          "internalType": "string",
          "name": "",
          "type": "string"
        }
      ],
      "stateMutability": "view",
      "type": "function"
    },
    {
      "inputs": [
        {
          "internalType": "string",
          "name": "dexName",
          "type": "string"
        }
      ],
      "name": "removeAdapter",
      "outputs": [],
      "stateMutability": "nonpayable",
      "type": "function"
    },
    {
      "inputs": [],
      "name": "renounceOwnership",
      "outputs": [],
      "stateMutability": "nonpayable",
      "type": "function"
    },
    {
      "inputs": [
        {
          "internalType": "address",
          "name": "tokenIn",
          "type": "address"
        },
        {
          "internalType": "address",
          "name": "tokenOut",
          "type": "address"
        },
        {
          "internalType": "uint256",
          "name": "amountIn",
          "type": "uint256"
        },
        {
          "internalType": "uint256",
          "name": "minAmountOut",
          "type": "uint256"
        },
        {
          "internalType": "address",
          "name": "recipient",
          "type": "address"
        }
      ],
      "name": "swapBestRoute",
      "outputs": [
        {
          "internalType": "uint256",
          "name": "amountOut",
          "type": "uint256"
        }
      ],
      "stateMutability": "nonpayable",
      "type": "function"
    },
    {
      "inputs": [
        {
          "internalType": "string",
          "name": "dexName",
          "type": "string"
        },
        {
          "internalType": "address",
          "name": "tokenIn",
          "type": "address"
        },
        {
          "internalType": "address",
          "name": "tokenOut",
          "type": "address"
        },
        {
          "internalType": "uint256",
          "name": "amountIn",
          "type": "uint256"
        },
        {
          "internalType": "uint256",
          "name": "minAmountOut",
          "type": "uint256"
        },
        {
          "internalType": "address",
          "name": "recipient",
          "type": "address"
        }
      ],
      "name": "swapOnDex",
      "outputs": [
        {
          "internalType": "uint256",
          "name": "amountOut",
          "type": "uint256"
        }
      ],
      "stateMutability": "nonpayable",
      "type": "function"
    },
    {
      "inputs": [
        {
          "internalType": "address",
          "name": "newOwner",
          "type": "address"
        }
      ],
      "name": "transferOwnership",
      "outputs": [],
      "stateMutability": "nonpayable",
      "type": "function"
    },
    {
      "inputs": [
        {
          "internalType": "address",
          "name": "token",
          "type": "address"
        },
        {
          "internalType": "uint256",
          "name": "amount",
          "type": "uint256"
        },
        {
          "internalType": "address",
          "name": "recipient",
          "type": "address"
        }
      ],
      "name": "withdrawFees",
      "outputs": [],
      "stateMutability": "nonpayable",
      "type": "function"
    }
  ],
  "bytecode": "0x608060405234801561001057600080fd5b506001600055338061003c57604051631e4fbdf760e01b81526000600482015260240160405180910390fd5b6100458161004b565b5061009d565b600180546001600160a01b038381166001600160a01b0319831681179093556040519116919082907f8be0079c531659141344cd1fd0a4f28419497f9722a3daafe3b4186f6b6457e090600090a35050565b611d7c806100ac6000396000f3fe608060405234801561001057600080fd5b50600436106101005760003560e01c8063b02e61a511610097578063e1a4521811610066578063e1a452181461022b578063e88cd2dd14610234578063f2fde38b14610254578063f7e255901461026757600080fd5b8063b02e61a5146101c7578063b1de1b88146101da578063b84f5d1e146101ef578063bf333f2c1461022357600080fd5b806379be938d116100d357806379be938d1461015b5780638b97f58a1461016e5780638da5cb5b1461018f5780639ba372c2146101b457600080fd5b8063361c85f0146101055780633ef11fd71461012b5780636ff1c9bc14610140578063715018a614610153575b600080fd5b61011861011336600461138c565b61027a565b6040519081526020015b60405180910390f35b61013e610139366004611434565b610505565b005b61013e61014e366004611476565b6106ca565b61013e610769565b61013e61016936600461149a565b61077d565b61018161017c3660046114f1565b61092d565b604051610122929190611582565b6001546001600160a01b03165b6040516001600160a01b039091168152602001610122565b61013e6101c23660046115a4565b610b06565b6101186101d53660046115db565b610b6c565b6101e2610c59565b604051610122919061164b565b61019c6101fd36600461171c565b80516020818301810180516002825292820191909301209152546001600160a01b031681565b610118600581565b61011861271081565b61024761024236600461179c565b610d32565b60405161012291906117b5565b61013e610262366004611476565b610dde565b6101186102753660046117c8565b610e1c565b600061028461100e565b6040516345cbfac560e11b815260009081903090638b97f58a906102b0908b908b908b90600401611858565b600060405180830381865afa1580156102cd573d6000803e3d6000fd5b505050506040513d6000823e601f3d908101601f191682016040526102f5919081019061187c565b91509150848110156103425760405162461bcd60e51b81526020600482015260116024820152700a6d8d2e0e0c2ceca40e8dede40d0d2ced607b1b60448201526064015b60405180910390fd5b6103576001600160a01b038916333089611038565b6000612710610367600589611913565b610371919061192a565b9050600061037f828961194c565b90506103b7600285604051610394919061195f565b908152604051908190036020019020546001600160a01b038c8116911683611098565b6002846040516103c7919061195f565b908152604051908190036020019020546001600160a01b031663d5bcb9b58b8b846127106103f660058e611913565b610400919061192a565b61040a908d61194c565b6040516001600160e01b031960e087901b1681526001600160a01b039485166004820152928416602484015260448301919091526064820152908916608482015260a4016020604051808303816000875af115801561046d573d6000803e3d6000fd5b505050506040513d601f19601f82011682018060405250810190610491919061197b565b9450886001600160a01b03168a6001600160a01b0316876001600160a01b03167f16cb7af0edb15458d4b952553f905873a20ff88510c5d88daf216e744578087d8b8989886040516104e69493929190611994565b60405180910390a4505050506104fc6001600055565b95945050505050565b61050d611122565b60006001600160a01b03166002838360405161052a9291906119c4565b908152604051908190036020019020546001600160a01b0316036105605760405162461bcd60e51b8152600401610339906119d4565b600282826040516105729291906119c4565b90815260405190819003602001902080546001600160a01b031916905560005b6003548110156106855782826040516105ac9291906119c4565b6040518091039020600382815481106105c7576105c76119ff565b906000526020600020016040516105de9190611ac2565b60405180910390200361067357600380546105fb9060019061194c565b8154811061060b5761060b6119ff565b9060005260206000200160038281548110610628576106286119ff565b90600052602060002001908161063e9190611b1c565b50600380548061065057610650611bfd565b60019003818190600052602060002001600061066c9190611329565b9055610685565b8061067d81611c13565b915050610592565b5081816040516106969291906119c4565b604051908190038120907fb00061f7cc154fc23eb34671ab724fc7eb7b806abae871abae8f1eafce97213590600090a25050565b6106d2611122565b6040516370a0823160e01b81523060048201526000906001600160a01b038316906370a0823190602401602060405180830381865afa158015610719573d6000803e3d6000fd5b505050506040513d601f19601f8201168201806040525081019061073d919061197b565b90506107656107546001546001600160a01b031690565b6001600160a01b038416908361114f565b5050565b610771611122565b61077b6000611185565b565b610785611122565b60006001600160a01b0316600284846040516107a29291906119c4565b908152604051908190036020019020546001600160a01b0316146108085760405162461bcd60e51b815260206004820152601a60248201527f4164617074657220616c726561647920726567697374657265640000000000006044820152606401610339565b6001600160a01b03811661085e5760405162461bcd60e51b815260206004820152601760248201527f496e76616c6964206164617074657220616464726573730000000000000000006044820152606401610339565b80600284846040516108719291906119c4565b90815260405190819003602001902080546001600160a01b03929092166001600160a01b0319909216919091179055600380546001810182556000919091527fc2575a0e9e593c00f959f8c92f12db2869c3395a3b0502d05e2516446f71f85b016108dd838583611c2c565b50806001600160a01b031683836040516108f89291906119c4565b604051908190038120907fb40573981f6088c2c6d55252227055ccde57ef96fdc623d5665bee381adf6c0990600090a3505050565b60606000805b600354811015610ab6576000600260038381548110610954576109546119ff565b9060005260206000200160405161096b9190611ac2565b90815260405190819003602001812054632550332960e11b82526001600160a01b031691508190634aa06652906109aa908a908a908a90600401611858565b602060405180830381865afa9250505080156109e3575060408051601f3d908101601f191682019092526109e09181019061197b565b60015b6109ed5750610aa4565b83811115610aa15780935060038381548110610a0b57610a0b6119ff565b906000526020600020018054610a2090611a15565b80601f0160208091040260200160405190810160405280929190818152602001828054610a4c90611a15565b8015610a995780601f10610a6e57610100808354040283529160200191610a99565b820191906000526020600020905b815481529060010190602001808311610a7c57829003601f168201915b505050505094505b50505b80610aae81611c13565b915050610933565b5060008111610afe5760405162461bcd60e51b8152602060048201526014602482015273139bc81d985b1a59081c9bdd5d1948199bdd5b9960621b6044820152606401610339565b935093915050565b610b0e611122565b610b226001600160a01b038416828461114f565b604080518381526001600160a01b0383811660208301528516917f87044da2612407bc001bb0985725dcc651a0dc71eaabfd1d7e8617ca85a8c19c910160405180910390a2505050565b6000806001600160a01b031660028787604051610b8a9291906119c4565b908152604051908190036020019020546001600160a01b031603610bc05760405162461bcd60e51b8152600401610339906119d4565b60028686604051610bd29291906119c4565b90815260405190819003602001812054632550332960e11b82526001600160a01b031690634aa0665290610c0e90879087908790600401611858565b602060405180830381865afa158015610c2b573d6000803e3d6000fd5b505050506040513d601f19601f82011682018060405250810190610c4f919061197b565b9695505050505050565b60606003805480602002602001604051908101604052809291908181526020016000905b82821015610d29578382906000526020600020018054610c9c90611a15565b80601f0160208091040260200160405190810160405280929190818152602001828054610cc890611a15565b8015610d155780601f10610cea57610100808354040283529160200191610d15565b820191906000526020600020905b815481529060010190602001808311610cf857829003601f168201915b505050505081526020019060010190610c7d565b50505050905090565b60038181548110610d4257600080fd5b906000526020600020016000915090508054610d5d90611a15565b80601f0160208091040260200160405190810160405280929190818152602001828054610d8990611a15565b8015610dd65780601f10610dab57610100808354040283529160200191610dd6565b820191906000526020600020905b815481529060010190602001808311610db957829003601f168201915b505050505081565b610de6611122565b6001600160a01b038116610e1057604051631e4fbdf760e01b815260006004820152602401610339565b610e1981611185565b50565b6000610e2661100e565b60006001600160a01b031660028989604051610e439291906119c4565b908152604051908190036020019020546001600160a01b031603610e795760405162461bcd60e51b8152600401610339906119d4565b610e8e6001600160a01b038716333087611038565b6000612710610e9e600587611913565b610ea8919061192a565b90506000610eb6828761194c565b9050610ef060028b8b604051610ecd9291906119c4565b908152604051908190036020019020546001600160a01b038a8116911683611098565b60028a8a604051610f029291906119c4565b9081526040519081900360200181205463d5bcb9b560e01b82526001600160a01b038a81166004840152898116602484015260448301849052606483018890528681166084840152169063d5bcb9b59060a4016020604051808303816000875af1158015610f74573d6000803e3d6000fd5b505050506040513d601f19601f82011682018060405250810190610f98919061197b565b9250866001600160a01b0316886001600160a01b0316856001600160a01b03167f16cb7af0edb15458d4b952553f905873a20ff88510c5d88daf216e744578087d89878f8f89604051610fef959493929190611cec565b60405180910390a450506110036001600055565b979650505050505050565b60026000540361103157604051633ee5aeb560e01b815260040160405180910390fd5b6002600055565b61109284856001600160a01b03166323b872dd86868660405160240161106093929190611858565b604051602081830303815290604052915060e01b6020820180516001600160e01b0383818316178352505050506111d7565b50505050565b604051636eb1769f60e11b81523060048201526001600160a01b0383811660248301526000919085169063dd62ed3e90604401602060405180830381865afa1580156110e8573d6000803e3d6000fd5b505050506040513d601f19601f8201168201806040525081019061110c919061197b565b9050611092848461111d8585611d33565b611248565b6001546001600160a01b0316331461077b5760405163118cdaa760e01b8152336004820152602401610339565b6040516001600160a01b0383811660248301526044820183905261118091859182169063a9059cbb90606401611060565b505050565b600180546001600160a01b038381166001600160a01b0319831681179093556040519116919082907f8be0079c531659141344cd1fd0a4f28419497f9722a3daafe3b4186f6b6457e090600090a35050565b600080602060008451602086016000885af1806111fa576040513d6000823e3d81fd5b50506000513d9150811561121257806001141561121f565b6001600160a01b0384163b155b1561109257604051635274afe760e01b81526001600160a01b0385166004820152602401610339565b604080516001600160a01b038416602482015260448082018490528251808303909101815260649091019091526020810180516001600160e01b031663095ea7b360e01b17905261129984826112d8565b611092576040516001600160a01b038481166024830152600060448301526112ce91869182169063095ea7b390606401611060565b61109284826111d7565b6000806000806020600086516020880160008a5af192503d9150600051905082801561131d5750811561130e578060011461131d565b6000866001600160a01b03163b115b93505050505b92915050565b50805461133590611a15565b6000825580601f10611345575050565b601f016020900490600052602060002090810190610e1991905b80821115611373576000815560010161135f565b5090565b6001600160a01b0381168114610e1957600080fd5b600080600080600060a086880312156113a457600080fd5b85356113af81611377565b945060208601356113bf81611377565b9350604086013592506060860135915060808601356113dd81611377565b809150509295509295909350565b60008083601f8401126113fd57600080fd5b50813567ffffffffffffffff81111561141557600080fd5b60208301915083602082850101111561142d57600080fd5b9250929050565b6000806020838503121561144757600080fd5b823567ffffffffffffffff81111561145e57600080fd5b61146a858286016113eb565b90969095509350505050565b60006020828403121561148857600080fd5b813561149381611377565b9392505050565b6000806000604084860312156114af57600080fd5b833567ffffffffffffffff8111156114c657600080fd5b6114d2868287016113eb565b90945092505060208401356114e681611377565b809150509250925092565b60008060006060848603121561150657600080fd5b833561151181611377565b9250602084013561152181611377565b929592945050506040919091013590565b60005b8381101561154d578181015183820152602001611535565b50506000910152565b6000815180845261156e816020860160208601611532565b601f01601f19169290920160200192915050565b6040815260006115956040830185611556565b90508260208301529392505050565b6000806000606084860312156115b957600080fd5b83356115c481611377565b92506020840135915060408401356114e681611377565b6000806000806000608086880312156115f357600080fd5b853567ffffffffffffffff81111561160a57600080fd5b611616888289016113eb565b909650945050602086013561162a81611377565b9250604086013561163a81611377565b949793965091946060013592915050565b6000602080830181845280855180835260408601915060408160051b870101925083870160005b828110156116a057603f1988860301845261168e858351611556565b94509285019290850190600101611672565b5092979650505050505050565b634e487b7160e01b600052604160045260246000fd5b604051601f8201601f1916810167ffffffffffffffff811182821017156116ec576116ec6116ad565b604052919050565b600067ffffffffffffffff82111561170e5761170e6116ad565b50601f01601f191660200190565b60006020828403121561172e57600080fd5b813567ffffffffffffffff81111561174557600080fd5b8201601f8101841361175657600080fd5b8035611769611764826116f4565b6116c3565b81815285602083850101111561177e57600080fd5b81602084016020830137600091810160200191909152949350505050565b6000602082840312156117ae57600080fd5b5035919050565b6020815260006114936020830184611556565b600080600080600080600060c0888a0312156117e357600080fd5b873567ffffffffffffffff8111156117fa57600080fd5b6118068a828b016113eb565b909850965050602088013561181a81611377565b9450604088013561182a81611377565b9350606088013592506080880135915060a088013561184881611377565b8091505092959891949750929550565b6001600160a01b039384168152919092166020820152604081019190915260600190565b6000806040838503121561188f57600080fd5b825167ffffffffffffffff8111156118a657600080fd5b8301601f810185136118b757600080fd5b80516118c5611764826116f4565b8181528660208385010111156118da57600080fd5b6118eb826020830160208601611532565b60209590950151949694955050505050565b634e487b7160e01b600052601160045260246000fd5b8082028115828204841417611323576113236118fd565b60008261194757634e487b7160e01b600052601260045260246000fd5b500490565b81810381811115611323576113236118fd565b60008251611971818460208701611532565b9190910192915050565b60006020828403121561198d57600080fd5b5051919050565b8481528360208201526080604082015260006119b36080830185611556565b905082606083015295945050505050565b8183823760009101908152919050565b6020808252601190820152701059185c1d195c881b9bdd08199bdd5b99607a1b604082015260600190565b634e487b7160e01b600052603260045260246000fd5b600181811c90821680611a2957607f821691505b602082108103611a4957634e487b7160e01b600052602260045260246000fd5b50919050565b60008154611a5c81611a15565b60018281168015611a745760018114611a8957611ab8565b60ff1984168752821515830287019450611ab8565b8560005260208060002060005b85811015611aaf5781548a820152908401908201611a96565b50505082870194505b5050505092915050565b60006114938284611a4f565b601f82111561118057600081815260208120601f850160051c81016020861015611af55750805b601f850160051c820191505b81811015611b1457828155600101611b01565b505050505050565b818103611b27575050565b611b318254611a15565b67ffffffffffffffff811115611b4957611b496116ad565b611b5d81611b578454611a15565b84611ace565b6000601f821160018114611b915760008315611b795750848201545b600019600385901b1c1916600184901b178455611bf6565b600085815260209020601f19841690600086815260209020845b83811015611bcb5782860154825560019586019590910190602001611bab565b5085831015611be95781850154600019600388901b60f8161c191681555b50505060018360011b0184555b5050505050565b634e487b7160e01b600052603160045260246000fd5b600060018201611c2557611c256118fd565b5060010190565b67ffffffffffffffff831115611c4457611c446116ad565b611c5883611c528354611a15565b83611ace565b6000601f841160018114611c8c5760008515611c745750838201355b600019600387901b1c1916600186901b178355611bf6565b600083815260209020601f19861690835b82811015611cbd5786850135825560209485019460019092019101611c9d565b5086821015611cda5760001960f88860031b161c19848701351681555b505060018560011b0183555050505050565b85815284602082015260806040820152826080820152828460a0830137600060a08483010152600060a0601f19601f86011683010190508260608301529695505050505050565b80820180821115611323576113236118fd56fea26469706673582212203d6bf186b155427f1af484b79aa11369376b85d2a51e8c2d38beaa475f807b9b64736f6c63430008140033",
  "linkReferences": {},
  "deployedLinkReferences": {}
}