{
  "_format": "hh-sol-artifact-1",
  "contractName": "TraderJoeV1Adapter",
  "sourceName": "contracts/adapters/TraderJoeV1Adapter.sol",
  "abi": [
    {
      "inputs": [
        {
          "internalType": "contract IJoeRouter",
          "name": "_router",
          "type": "address"
        },
        {
          "internalType": "address",
          "name": "_factory",
          "type": "address"
        }
      ],
      "stateMutability": "nonpayable",
      "type": "constructor"
    },
    {
      "inputs": [
        {
          "internalType": "address",
          "name": "token",
          "type": "address"
        }
      ],
      "name": "SafeERC20FailedOperation",
      "type": "error"
    },
    {
      "inputs": [],
      "name": "WAVAX",
      "outputs": [
        {
          "internalType": "address",
          "name": "",
          "type": "address"
        }
      ],
      "stateMutability": "view",
      "type": "function"
    },
    {
      "inputs": [],
      "name": "dexName",
      "outputs": [
        {
          "internalType": "string",
          "name": "",
          "type": "string"
        }
      ],
      "stateMutability": "pure",
      "type": "function"
    },
    {
      "inputs": [],
      "name": "factory",
      "outputs": [
        {
          "internalType": "address",
          "name": "",
          "type": "address"
        }
      ],
      "stateMutability": "view",
      "type": "function"
    },
    {
      "inputs": [
        {
          "internalType": "address",
          "name": "tokenIn",
          "type": "address"
        },
        {
          "internalType": "address",
          "name": "tokenOut",
          "type": "address"
        },
        {
          "internalType": "uint256",
          "name": "amountIn",
          "type": "uint256"
        }
      ],
      "name": "getAmountOut",
      "outputs": [
        {
          "internalType": "uint256",
          "name": "amountOut",
          "type": "uint256"
        }
      ],
      "stateMutability": "view",
      "type": "function"
    },
    {
      "inputs": [
        {
          "internalType": "address",
          "name": "tokenIn",
          "type": "address"
        },
        {
          "internalType": "address",
          "name": "tokenOut",
          "type": "address"
        }
      ],
      "name": "hasPool",
      "outputs": [
        {
          "internalType": "bool",
          "name": "",
          "type": "bool"
        }
      ],
      "stateMutability": "view",
      "type": "function"
    },
    {
      "inputs": [],
      "name": "router",
      "outputs": [
        {
          "internalType": "contract IJoeRouter",
          "name": "",
          "type": "address"
        }
      ],
      "stateMutability": "view",
      "type": "function"
    },
    {
      "inputs": [
        {
          "internalType": "address",
          "name": "tokenIn",
          "type": "address"
        },
        {
          "internalType": "address",
          "name": "tokenOut",
          "type": "address"
        },
        {
          "internalType": "uint256",
          "name": "amountIn",
          "type": "uint256"
        },
        {
          "internalType": "uint256",
          "name": "minAmountOut",
          "type": "uint256"
        },
        {
          "internalType": "address",
          "name": "recipient",
          "type": "address"
        }
      ],
      "name": "swap",
      "outputs": [
        {
          "internalType": "uint256",
          "name": "amountOut",
          "type": "uint256"
        }
      ],
      "stateMutability": "nonpayable",
      "type": "function"
    }
  ],
  "bytecode": "0x60c0346100ae57601f610cfe38819003918201601f19168301916001600160401b038311848410176100b35780849260409485528339810103126100ae5780516001600160a01b039182821682036100ae576020015191821682036100ae5760805260a052604051610c3490816100ca823960805181818160820152818161052c015281816105f701526106fd015260a05181818161015801528181610aa501528181610b5e0152610bc50152f35b600080fd5b634e487b7160e01b600052604160045260246000fdfe60806040818152600436101561001457600080fd5b600091823560e01c90816312009f27146101e6575080634aa06652146101b557806373b295c214610187578063c45a015514610144578063d5bcb9b5146100eb578063d6432fab146100b55763f887ea401461006f57600080fd5b346100b157816003193601126100b157517f00000000000000000000000000000000000000000000000000000000000000006001600160a01b03168152602090f35b5080fd5b50346100b157806003193601126100b1576020906100e26100d4610289565b6100dc6102a4565b90610b97565b90519015158152f35b50346100b15760a03660031901126100b157610105610289565b61010d6102a4565b608435939091906001600160a01b038516850361014157509261013a916020946064359160443591610683565b9051908152f35b80fd5b50346100b157816003193601126100b157517f00000000000000000000000000000000000000000000000000000000000000006001600160a01b03168152602090f35b50346100b157816003193601126100b1576020905173b31f66aa3c1ee3b4dd11e3a23d8e14d7254c2d6c8152f35b50346100b15760603660031901126100b15760209061013a6101d5610289565b6101dd6102a4565b60443591610426565b90503461028557826003193601126102855781810181811067ffffffffffffffff821117610271578252600c81526020906b5472616465724a6f6520563160a01b8282015282519382859384528251928382860152825b84811061025b57505050828201840152601f01601f19168101030190f35b818101830151888201880152879550820161023d565b634e487b7160e01b84526041600452602484fd5b8280fd5b600435906001600160a01b038216820361029f57565b600080fd5b602435906001600160a01b038216820361029f57565b6060810190811067ffffffffffffffff8211176102d657604052565b634e487b7160e01b600052604160045260246000fd5b6080810190811067ffffffffffffffff8211176102d657604052565b90601f8019910116810190811067ffffffffffffffff8211176102d657604052565b8051156103375760200190565b634e487b7160e01b600052603260045260246000fd5b8051600110156103375760400190565b8051600210156103375760600190565b90602090818382031261029f57825167ffffffffffffffff9384821161029f570181601f8201121561029f5780519384116102d6578360051b90604051946103b785840187610308565b8552838086019282010192831161029f578301905b8282106103da575050505090565b815181529083019083016103cc565b90815180825260208080930193019160005b828110610409575050505090565b83516001600160a01b0316855293810193928101926001016103fb565b90916104328383610b97565b6105b25773b31f66aa3c1ee3b4dd11e3a23d8e14d7254c2d6c916001600160a01b0381811692909184841415806105a6575b6104a4575b60405162461bcd60e51b8152602060048201526013602482015272139bc81d985b1a59081c185a5c88199bdd5b99606a1b6044820152606490fd5b6104ad90610a66565b80610597575b6104bd5780610469565b61052894600094604051946104d1866102ec565b6003865260603660208801376104e68661032a565b526104f08561034d565b52826104fb8561035d565b9116905260405180958194829363d06ca61f60e01b845260048401526040602484015260448301906103e9565b03917f0000000000000000000000000000000000000000000000000000000000000000165afa801561058b576105669160009161056a575b5061035d565b5190565b610585913d8091833e61057d8183610308565b81019061036d565b38610560565b6040513d6000823e3d90fd5b506105a185610b1f565b6104b3565b50848387161415610464565b916000916105f393604051926105c7846102ba565b6002845260403660208601376105dc8461032a565b6001600160a01b039384169052826104fb8561034d565b03917f0000000000000000000000000000000000000000000000000000000000000000165afa801561058b5761056691600091610631575b5061034d565b610644913d8091833e61057d8183610308565b3861062b565b919260809361066f92979695978452602084015260a0604084015260a08301906103e9565b6001600160a01b0390951660608201520152565b93919294909460018060a01b0393848616906040948551986020976323b872dd60e01b898c015260249a338c8201523060448201528460648201526064815260a0810181811067ffffffffffffffff8211176109f55789526106e59086610a0a565b8751636eb1769f60e11b8152306004808301919091527f000000000000000000000000000000000000000000000000000000000000000083166001600160a01b0381166024840152909b9096918b81604481865afa9081156109ea576000916109bd575b508d8782018092116109aa579185916107af938d8f8c8251938260008b82880163095ea7b360e01b998a825286868b015260448a01526044895261078c896102ec565b828951925af16000513d8261098e575b505015610953575b505050505050610b97565b6108cc5773b31f66aa3c1ee3b4dd11e3a23d8e14d7254c2d6c9081811415806108c0575b61081057895162461bcd60e51b8152808d018c90526014818f015273139bc81d985b1a59081c9bdd5d1948199bdd5b9960621b6044820152606490fd5b60608a9c969798999b9a519a6108258c6102ec565b60038c5236908c01376108378a61032a565b526108418961034d565b5261084b8861035d565b9116905261012c4201988942116108ad5750906108848899600097989993889451998a98899788966338ed173960e01b8852870161064a565b03925af19081156108a25761056692935060009161056a575061035d565b83513d6000823e3d90fd5b634e487b7160e01b600090815260118452fd5b508183851614156107d3565b88809b959697989a9951996108e08b6102ba565b60028b5236908b01376108f28961032a565b526108fc8861034d565b9116905261012c4201988942116108ad5750906109358899600097989993889451998a98899788966338ed173960e01b8852870161064a565b03925af19081156108a257610566929350600091610631575061034d565b6109839561097d9451938401528201526000604482015260448152610977816102ec565b87610a0a565b85610a0a565b388f8d8f8c836107a4565b9091506109a25750893b15155b388061079c565b60011461099b565b634e487b7160e01b600090815260118f52fd5b908c82813d83116109e3575b6109d38183610308565b8101031261014157505138610749565b503d6109c9565b8b513d6000823e3d90fd5b8c634e487b7160e01b60005260416004526000fd5b906000602091828151910182855af11561058b576000513d610a5d57506001600160a01b0381163b155b610a3b5750565b604051635274afe760e01b81526001600160a01b039091166004820152602490fd5b60011415610a34565b60405163e6a4390560e01b81526001600160a01b03918216600482015273b31f66aa3c1ee3b4dd11e3a23d8e14d7254c2d6c60248201526020816044817f000000000000000000000000000000000000000000000000000000000000000086165afa8091600091610ae5575b5090610adf575050600090565b16151590565b6020813d8211610b17575b81610afd60209383610308565b810103126100b15751908382168203610141575038610ad2565b3d9150610af0565b60405163e6a4390560e01b815273b31f66aa3c1ee3b4dd11e3a23d8e14d7254c2d6c60048201526001600160a01b0391821660248201526020816044817f000000000000000000000000000000000000000000000000000000000000000086165afa8091600091610ae5575090610adf575050600090565b60405163e6a4390560e01b81526001600160a01b0391821660048201529181166024830152906020816044817f000000000000000000000000000000000000000000000000000000000000000086165afa8091600091610ae5575090610adf57505060009056fea2646970667358221220923f402be04ae5046ac8136c703951c591e5f4325098e3c8a2e1fc74f3690c6664736f6c63430008140033",
  "linkReferences": {},
  "deployedLinkReferences": {}
}