{
  "_format": "hh-sol-artifact-1",
  "contractName": "TraderJoeV1Adapter",
  "sourceName": "contracts/adapters/TraderJoeV1Adapter.sol",
  "abi": [
    {
      "inputs": [
        {
          "internalType": "contract IJoeRouter",
          "name": "_router",
          "type": "address"
        },
        {
          "internalType": "address",
          "name": "_factory",
          "type": "address"
        }
      ],
      "stateMutability": "nonpayable",
      "type": "constructor"
    },
    {
      "inputs": [
        {
          "internalType": "address",
          "name": "token",
          "type": "address"
        }
      ],
      "name": "SafeERC20FailedOperation",
      "type": "error"
    },
    {
      "inputs": [],
      "name": "WAVAX",
      "outputs": [
        {
          "internalType": "address",
          "name": "",
          "type": "address"
        }
      ],
      "stateMutability": "view",
      "type": "function"
    },
    {
      "inputs": [],
      "name": "dexName",
      "outputs": [
        {
          "internalType": "string",
          "name": "",
          "type": "string"
        }
      ],
      "stateMutability": "pure",
      "type": "function"
    },
    {
      "inputs": [],
      "name": "factory",
      "outputs": [
        {
          "internalType": "address",
          "name": "",
          "type": "address"
        }
      ],
      "stateMutability": "view",
      "type": "function"
    },
    {
      "inputs": [
        {
          "internalType": "address",
          "name": "tokenIn",
          "type": "address"
        },
        {
          "internalType": "address",
          "name": "tokenOut",
          "type": "address"
        },
        {
          "internalType": "uint256",
          "name": "amountIn",
          "type": "uint256"
        }
      ],
      "name": "getAmountOut",
      "outputs": [
        {
          "internalType": "uint256",
          "name": "amountOut",
          "type": "uint256"
        }
      ],
      "stateMutability": "view",
      "type": "function"
    },
    {
      "inputs": [
        {
          "internalType": "address",
          "name": "tokenIn",
          "type": "address"
        },
        {
          "internalType": "address",
          "name": "tokenOut",
          "type": "address"
        }
      ],
      "name": "hasPool",
      "outputs": [
        {
          "internalType": "bool",
          "name": "",
          "type": "bool"
        }
      ],
      "stateMutability": "view",
      "type": "function"
    },
    {
      "inputs": [],
      "name": "router",
      "outputs": [
        {
          "internalType": "contract IJoeRouter",
          "name": "",
          "type": "address"
        }
      ],
      "stateMutability": "view",
      "type": "function"
    },
    {
      "inputs": [
        {
          "internalType": "address",
          "name": "tokenIn",
          "type": "address"
        },
        {
          "internalType": "address",
          "name": "tokenOut",
          "type": "address"
        },
        {
          "internalType": "uint256",
          "name": "amountIn",
          "type": "uint256"
        },
        {
          "internalType": "uint256",
          "name": "minAmountOut",
          "type": "uint256"
        },
        {
          "internalType": "address",
          "name": "recipient",
          "type": "address"
        }
      ],
      "name": "swap",
      "outputs": [
        {
          "internalType": "uint256",
          "name": "amountOut",
          "type": "uint256"
        }
      ],
      "stateMutability": "nonpayable",
      "type": "function"
    }
  ],
  "bytecode": "0x60c060405234801561001057600080fd5b5060405161101f38038061101f83398101604081905261002f9161005e565b6001600160a01b039182166080521660a052610098565b6001600160a01b038116811461005b57600080fd5b50565b6000806040838503121561007157600080fd5b825161007c81610046565b602084015190925061008d81610046565b809150509250929050565b60805160a051610f386100e760003960008181610112015261091701526000818161016f0152818161023301528181610447015281816105480152818161060001526107df0152610f386000f3fe608060405234801561001057600080fd5b506004361061007d5760003560e01c8063c45a01551161005b578063c45a01551461010d578063d5bcb9b514610134578063d6432fab14610147578063f887ea401461016a57600080fd5b806312009f27146100825780634aa06652146100b957806373b295c2146100da575b600080fd5b604080518082018252600c81526b5472616465724a6f6520563160a01b602082015290516100b09190610be1565b60405180910390f35b6100cc6100c7366004610c47565b610191565b6040519081526020016100b0565b6100f573b31f66aa3c1ee3b4dd11e3a23d8e14d7254c2d6c81565b6040516001600160a01b0390911681526020016100b0565b6100f57f000000000000000000000000000000000000000000000000000000000000000081565b6100cc610142366004610c88565b610522565b61015a610155366004610ce7565b6108d8565b60405190151581526020016100b0565b6100f57f000000000000000000000000000000000000000000000000000000000000000081565b600061019d84846108ed565b156102d55760408051600280825260608201835260009260208301908036833701905050905084816000815181106101d7576101d7610d36565b60200260200101906001600160a01b031690816001600160a01b031681525050838160018151811061020b5761020b610d36565b6001600160a01b03928316602091820292909201015260405163d06ca61f60e01b81526000917f0000000000000000000000000000000000000000000000000000000000000000169063d06ca61f9061026a9087908690600401610d90565b600060405180830381865afa158015610287573d6000803e3d6000fd5b505050506040513d6000823e601f3d908101601f191682016040526102af9190810190610db1565b9050806001815181106102c4576102c4610d36565b60200260200101519250505061051b565b6001600160a01b03841673b31f66aa3c1ee3b4dd11e3a23d8e14d7254c2d6c1480159061031f57506001600160a01b03831673b31f66aa3c1ee3b4dd11e3a23d8e14d7254c2d6c14155b156104d8576103428473b31f66aa3c1ee3b4dd11e3a23d8e14d7254c2d6c6108ed565b8015610367575061036773b31f66aa3c1ee3b4dd11e3a23d8e14d7254c2d6c846108ed565b156104d857604080516003808252608082019092526000916020820160608036833701905050905084816000815181106103a3576103a3610d36565b60200260200101906001600160a01b031690816001600160a01b03168152505073b31f66aa3c1ee3b4dd11e3a23d8e14d7254c2d6c816001815181106103eb576103eb610d36565b60200260200101906001600160a01b031690816001600160a01b031681525050838160028151811061041f5761041f610d36565b6001600160a01b03928316602091820292909201015260405163d06ca61f60e01b81526000917f0000000000000000000000000000000000000000000000000000000000000000169063d06ca61f9061047e9087908690600401610d90565b600060405180830381865afa15801561049b573d6000803e3d6000fd5b505050506040513d6000823e601f3d908101601f191682016040526104c39190810190610db1565b9050806002815181106102c4576102c4610d36565b60405162461bcd60e51b8152602060048201526013602482015272139bc81d985b1a59081c185a5c88199bdd5b99606a1b60448201526064015b60405180910390fd5b9392505050565b60006105396001600160a01b03871633308761099a565b61056d6001600160a01b0387167f000000000000000000000000000000000000000000000000000000000000000086610a07565b61057786866108ed565b156106c25760408051600280825260608201835260009260208301908036833701905050905086816000815181106105b1576105b1610d36565b60200260200101906001600160a01b031690816001600160a01b03168152505085816001815181106105e5576105e5610d36565b6001600160a01b0392831660209182029290920101526000907f0000000000000000000000000000000000000000000000000000000000000000166338ed1739878785886106354261012c610e6f565b6040518663ffffffff1660e01b8152600401610655959493929190610e90565b6000604051808303816000875af1158015610674573d6000803e3d6000fd5b505050506040513d6000823e601f3d908101601f1916820160405261069c9190810190610db1565b9050806001815181106106b1576106b1610d36565b6020026020010151925050506108cf565b6001600160a01b03861673b31f66aa3c1ee3b4dd11e3a23d8e14d7254c2d6c1480159061070c57506001600160a01b03851673b31f66aa3c1ee3b4dd11e3a23d8e14d7254c2d6c14155b15610890576040805160038082526080820190925260009160208201606080368337019050509050868160008151811061074857610748610d36565b60200260200101906001600160a01b031690816001600160a01b03168152505073b31f66aa3c1ee3b4dd11e3a23d8e14d7254c2d6c8160018151811061079057610790610d36565b60200260200101906001600160a01b031690816001600160a01b03168152505085816002815181106107c4576107c4610d36565b6001600160a01b0392831660209182029290920101526000907f0000000000000000000000000000000000000000000000000000000000000000166338ed1739878785886108144261012c610e6f565b6040518663ffffffff1660e01b8152600401610834959493929190610e90565b6000604051808303816000875af1158015610853573d6000803e3d6000fd5b505050506040513d6000823e601f3d908101601f1916820160405261087b9190810190610db1565b9050806002815181106106b1576106b1610d36565b60405162461bcd60e51b8152602060048201526014602482015273139bc81d985b1a59081c9bdd5d1948199bdd5b9960621b6044820152606401610512565b95945050505050565b60006108e483836108ed565b90505b92915050565b60405163e6a4390560e01b81526001600160a01b03838116600483015282811660248301526000917f00000000000000000000000000000000000000000000000000000000000000009091169063e6a4390590604401602060405180830381865afa92505050801561097c575060408051601f3d908101601f1916820190925261097991810190610ecc565b60015b610988575060006108e7565b6001600160a01b0316151590506108e7565b6040516001600160a01b038481166024830152838116604483015260648201839052610a019186918216906323b872dd906084015b604051602081830303815290604052915060e01b6020820180516001600160e01b038381831617835250505050610a91565b50505050565b604051636eb1769f60e11b81523060048201526001600160a01b0383811660248301526000919085169063dd62ed3e90604401602060405180830381865afa158015610a57573d6000803e3d6000fd5b505050506040513d601f19601f82011682018060405250810190610a7b9190610ee9565b9050610a018484610a8c8585610e6f565b610b02565b600080602060008451602086016000885af180610ab4576040513d6000823e3d81fd5b50506000513d91508115610acc578060011415610ad9565b6001600160a01b0384163b155b15610a0157604051635274afe760e01b81526001600160a01b0385166004820152602401610512565b604080516001600160a01b038416602482015260448082018490528251808303909101815260649091019091526020810180516001600160e01b031663095ea7b360e01b179052610b538482610b92565b610a01576040516001600160a01b03848116602483015260006044830152610b8891869182169063095ea7b3906064016109cf565b610a018482610a91565b6000806000806020600086516020880160008a5af192503d91506000519050828015610bd757508115610bc85780600114610bd7565b6000866001600160a01b03163b115b9695505050505050565b600060208083528351808285015260005b81811015610c0e57858101830151858201604001528201610bf2565b506000604082860101526040601f19601f8301168501019250505092915050565b6001600160a01b0381168114610c4457600080fd5b50565b600080600060608486031215610c5c57600080fd5b8335610c6781610c2f565b92506020840135610c7781610c2f565b929592945050506040919091013590565b600080600080600060a08688031215610ca057600080fd5b8535610cab81610c2f565b94506020860135610cbb81610c2f565b935060408601359250606086013591506080860135610cd981610c2f565b809150509295509295909350565b60008060408385031215610cfa57600080fd5b8235610d0581610c2f565b91506020830135610d1581610c2f565b809150509250929050565b634e487b7160e01b600052604160045260246000fd5b634e487b7160e01b600052603260045260246000fd5b600081518084526020808501945080840160005b83811015610d855781516001600160a01b031687529582019590820190600101610d60565b509495945050505050565b828152604060208201526000610da96040830184610d4c565b949350505050565b60006020808385031215610dc457600080fd5b825167ffffffffffffffff80821115610ddc57600080fd5b818501915085601f830112610df057600080fd5b815181811115610e0257610e02610d20565b8060051b604051601f19603f83011681018181108582111715610e2757610e27610d20565b604052918252848201925083810185019188831115610e4557600080fd5b938501935b82851015610e6357845184529385019392850192610e4a565b98975050505050505050565b808201808211156108e757634e487b7160e01b600052601160045260246000fd5b85815284602082015260a060408201526000610eaf60a0830186610d4c565b6001600160a01b0394909416606083015250608001529392505050565b600060208284031215610ede57600080fd5b815161051b81610c2f565b600060208284031215610efb57600080fd5b505191905056fea2646970667358221220ce340565d0dfb5c50e17fa62d84f8b4c67bacc0a39592c252bcdcaed92e1a66964736f6c63430008140033",
  "linkReferences": {},
  "deployedLinkReferences": {}
}